:020000040800F2
:10000000181F002001010008AB1E00084519000858
:10001000A91E000811020008D523000800000000F6
:10002000000000000000000000000000AF1E0008FB
:100030001302000800000000AD1E0008B11E0008F9
:100040001B0100081B0100081B0100081B01000820
:100050001B0100081B0100081B0100081B01000810
:100060001B0100081B0100081B0100081B01000800
:100070001B0100081B0100081B0100081B010008F0
:100080001B0100081B0100081B0100081B010008E0
:100090001B0100081B0100081B01000815020008D5
:1000A0001B010008111F00081B0100081B010008AC
:1000B0001D1F00081B0100081B0100081B01000890
:1000C0001B0100081B0100081B0100081B010008A0
:1000D0001B010008C12300081B0100081B010008C8
:1000E0001B0100081B0100081B010008DFF80CD0F1
:1000F00000F070F80048004721270008181F002072
:100100000648804706480047FEE7FEE7FEE7FEE7B1
:10011000FEE7FEE7FEE7FEE7FEE7FEE70F1F00084B
:10012000ED000008202A04DB203A21FA02F0002129
:10013000704721FA02F3D040C2F1200291400843F7
:100140001946704740EA01039B0703D009E008C93C
:10015000121F08C0042AFAD203E011F8013B00F88C
:10016000013B521EF9D27047D2B201E000F8012BD8
:10017000491EFBD270470022F6E710B513460A4627
:1001800004461946FFF7F0FF204610BD30B504467F
:100190000020034600E05B1C934203D2E05CCD5C90
:1001A000401BF8D030BD30B50B4601460020202260
:1001B000012409E021FA02F59D4205D303FA02F574
:1001C000491B04FA02F52844151EA2F10102F1DCD4
:1001D00030BD0000064C074D06E0E06840F001032A
:1001E00094E8070098471034AC42F6D3FFF782FF3B
:1001F0004C2A00086C2A00080448034900220068C1
:1002000001600A707047000058080020200000209C
:10021000FEE77047202000F0F3B972B6FEE7000059
:1002200006490020C8610648016941F004010161E6
:10023000016941F04001016170470000F818002099
:1002400000200240064A0021D16106490A6942F0B5
:1002500002020A614861086940F040000861704785
:10026000F818002000200240044B0022DA61044A02
:10027000136943F00103136101807047F8180020EF
:100280000020024014480022C168CB06134904D55F
:10029000CA6942F00202CA611022C3685B0705D531
:1002A000CB6943F00103CB6142F00402C369DB0771
:1002B00007D0CB6943F00403CB61C16921F0010190
:1002C000C161A2F58071013901D0C2607047C16976
:1002D00021F00101C161704700200240F8180020A0
:1002E00070B5054600F09AFA0646114C09E0681C04
:1002F00007D025B100F092FA801BA84201D9032053
:1003000070BDE068C007F2D1E068800601D520200A
:10031000E060E068C00605D4E069C00702D1E0688B
:10032000400703D5FFF7AEFF012070BD002070BD70
:100330000020024010B590F821100022022905D0BB
:100340000421816380F82020012010BD01680B6822
:1003500023F00E030B6001680B6823F001030B60B0
:1003600090F84030C46B012101FA03F3636080F818
:10037000211080F82020104610BD000010B590F824
:1003800021100024022903D00421816301243DE0CF
:1003900001680A6822F00E020A6001680A6822F009
:1003A00001020A601A4A0168914201D1012121E04B
:1003B000174A1432914201D110211BE0144A28320D
:1003C000914201D1891515E0114A3C32914201D187
:1003D00089140FE00E4A5032914202D14FF480311D
:1003E00008E00B4A6432914202D14FF4801101E0DF
:1003F0004FF08071064A083A5160012180F82110BF
:10040000002180F82010416B01B18847204610BDC3
:100410000800024070B5054600F000FA4FEA0004FB
:1004200000F0FCF9001BA842FAD370BD2DE9F0479B
:10043000054626480F460126017E01290FD00121DD
:10044000814601762868DFF888804CF25034022813
:1004500008D0A2462046FFF743FFA8B131E00220B2
:10046000BDE8F0872046FFF73BFF08BB0120FFF700
:10047000D7FE2046FFF734FFD8F81010064621F0CB
:100480000401C8F810101CE04FF0FF303860AC6871
:1004900011E02046FFF7D6FE5046FFF721FFD8F8BF
:1004A0001010060021F00201C8F8101001D03C60C5
:1004B00007E004F58064D5E9020100EB8120A04249
:1004C000E7D8002189F818103046C9E7F81800204D
:1004D000002002400348016941F0800101610020D1
:1004E00070470000002002402DE9F05F07461C48DD
:1004F00088460024017E15461E46012909D00121A7
:10050000814601764CF2503A5046FFF7E9FE18B1A9
:1005100022E00220BDE8F09F012F02D0022F00D080
:100520000427D346DFF83CA0220128463146FFF7D6
:10053000F9FD81B208EB4400FFF796FE5846FFF73D
:10054000CFFEDAF8102022F00102CAF8102018B904
:10055000641CE4B2BC42E7D3002289F81820D9E732
:10056000F818002000200240064900200A691206FF
:1005700007D5054A4A60054A4A600969090600D557
:10058000012070470020024023016745AB89EFCD71
:1005900070B5174C002120680278012A1FD0022A6A
:1005A00025D15207536A5162428800EB4205521C22
:1005B0004280AB80428840F2FE339A4208D90170F3
:1005C0000C4800F037FDA26812B101202168904765
:1005D00020684188BDE8704007A001F0FDBE0222FE
:1005E00002704180BDE87040024800F0F7BC70BD69
:1005F000280000206418002025640D0A0000000077
:10060000044910B50A68024202D00860FFF7C0FF33
:1006100010BD0000140401402DE9F84FDFF8B89137
:10062000002409F1040A0AF1040B23460F270BF1F9
:10063000040EC9E00125A5402A40AA427DD1674E9B
:10064000D1F804C0ACEB0608B44532D014DCBCF1E0
:10065000030F3AD009DCBCF1000F2AD0BCF1010F26
:100660001CD0BCF1020F31D11DE0BCF1110F17D02D
:10067000BCF1120F2AD119E0B8F5881F19D006DC99
:10068000B8F5803F15D0B8F5801F1FD111E0B8F53F
:10069000001F0ED0B8F5041F18D10AE0CB6815E092
:1006A000CB681B1D12E0CB6808330FE0CB680C331E
:1006B0000CE08B682BB1012B4FF0080303D0456190
:1006C00004E0042302E0056100E00023FF2A01D8D2
:1006D000064601E000F104064FEA840501D9A5F1C0
:1006E0002005D6F8008007FA05FC28EA0C0803FA72
:1006F00005F548EA0508C6F800804D68ED0062D5AA
:10070000374DAE6946F00106AE61AD6924F00306CF
:1007100005F001050095334D06EB050CDCF808509B
:10072000A607360F07FA06F825EA0805DFF8B880AD
:10073000404503D14FF0000817E044E0DFF8AC80FB
:10074000404502D14FF001080FE0DFF8A48040459A
:1007500002D14FF0020808E0DFF89880404502D14E
:100760004FF0030801E04FF0040808FA06F848EAE1
:100770000508CCF808804D68D9F80060ED034D46B7
:1007800001D5164300E096432E604D68DAF800600C
:10079000AD03554601D5164300E096432E604D68E3
:1007A000DBF80060ED025D4601D5164300E096439C
:1007B0002E604D68DEF80060AD02754601D5164327
:1007C00000E096432E60641C0D682A46E5407FF4E5
:1007D00031AFBDE8F88F00000004014000001110A7
:1007E000001002400000014000080140000C0140E0
:1007F00000100140001401408068084000D0012032
:100800007047C26821EA02030A4043EA02410161DB
:1008100070470AB1016170470904FBE7014880682D
:10082000704700003C0000200248816802781144B3
:10083000816070473C000020074810B5016841F016
:1008400010010160032000F08FF8002000F006F88E
:1008500000F03EF8002010BD0020024000B5014627
:1008600087B00022192000F05FF8192000F04EF840
:100870001348816941F400618161806905A900F430
:1008800000600690684600F017F900F045F90D4940
:100890000D4AB0FBF1F10D48491E0260416040F283
:1008A000E7320021C0E90321816000F041FB10B173
:1008B000012007B000BD054800F090FBF9E70000FB
:1008C0000010024040420F00002C014010080020A0
:1008D0000C4808B5816941F001018161816901F02D
:1008E00001010091C16941F08051C161C06900F00E
:1008F000805000900448416821F0E06141F00071AF
:10090000416008BD0010024000000140002809DBE2
:1009100000F01F02012191404009800000F1E02019
:10092000C0F8001170470000F0B40E4B1B680C4675
:10093000C3F30223C3F10705042D00D90425191DB3
:10094000072901D2002300E0DB1E012606FA05F18B
:10095000491E214099409E40761E16403143F0BC0E
:1009600001F04ABD0CED00E0064900F007020868FE
:100970004FF6FF03184040EA0220034A1043086084
:10098000704700000CED00E00000FA052DE9F0478B
:100990000F46050061D0434E306800F00700B842B2
:1009A00009D2306820F0070038433060306800F02A
:1009B0000700B84251D128683B4C810712D5400747
:1009C00003D5606840F4E06060602878000703D5D4
:1009D000606840F4605060606068A96820F0F000D2
:1009E000084360602878C00728D06868012810D0C4
:1009F0002168022810D0890700292EDA616821F0C9
:100A0000030101436160FFF709FF804641F2883925
:100A10000DE021688903EFE78901EDE7FFF7FEFEAE
:100A2000A0EB0801494502D90320BDE8F0876068C2
:100A3000696800F00C00B0EB810FEFD1306800F076
:100A40000700B8420BD9306820F007003843306007
:100A5000306800F00700B84201D00120E5E72878AF
:100A6000400705D56068E96820F4E06008436060ED
:100A70002878000706D56068296920F4605040EAAC
:100A8000C100606000F058F86168084AC1F30311C2
:100A9000515CC8400649086006480068FFF7DEFE62
:100AA0000020C2E70020024000100240342A000863
:100AB00048000020400000200F2202600C4A5368CA
:100AC00003F003034360536803F0F003836053684B
:100AD00003F4E063C36052684FF4E06303EAD202B8
:100AE00002610448006800F00700086070470000D9
:100AF000001002400020024004480549006849688F
:100B0000044AC1F30221515CC840704748000020EC
:100B100000100240442A000804480549006849685A
:100B2000044AC1F3C221515CC8407047480000200C
:100B300000100240442A000812A185B00FC98DE8B8
:100B40000F0014A0144A006804905168134801F083
:100B50000C03042B10D0082B0ED1C1F38343C9031F
:100B60001DF803000AD5516804AAC1F34041515C45
:100B70000A4A5043B0FBF1F005B0704708494843BA
:100B8000FAE7000002030405060708090A0B0C0D2A
:100B90000E0F1010010200000010024000127A0037
:100BA00000093D002DE9F84F040070D02078C04DB9
:100BB000C00749D06868C0F38100012807D0686881
:100BC000C0F38100022809D16868C00306D52868EF
:100BD000800339D560680028E7D035E06068B0F55B
:100BE000803F0BD010B1B0F5A02F11D0286820F4B1
:100BF00080302860286820F4802002E0286840F4D3
:100C000080302860606890B1FFF708FE06460AE071
:100C1000286840F480202860F0E700BFFFF7FEFD61
:100C2000801B642873D828688003F7D50CE0FFF791
:100C3000F5FD064605E000BFFFF7F0FD801B6428C8
:100C4000F0D828688003F7D420789A4E80074FF0B8
:100C500001094FF0000839D5686810F00C0F07D073
:100C60006868C0F38100022809D16868C00306D40F
:100C70002868800714D52069012808D110E0206970
:100C8000B0B1C6F80090FFF7C9FD074605E00AE1DC
:100C9000FFF7C4FDC01B0228C4D828688007F7D519
:100CA0002868616920F0F80040EAC10028600DE082
:100CB000C6F80080FFF7B2FD074604E0FFF7AEFD7F
:100CC000C01B022823D828688007F7D420780007A3
:100CD0002CD57948A169D9B1C0F80090FFF79EFDE5
:100CE000074604E0FFF79AFDC01B02280FD8686A88
:100CF0008007F7D571484FF4FA510068B0FBF1F066
:100D0000009000BF0098411E0091FAD20EE080E0F2
:100D1000C0F80080FFF782FD074604E0FFF77EFD84
:100D2000C01B022875D8686A8007F7D4207840076E
:100D300060D5E8690027C00008D4E86940F0805019
:100D4000E861E869012700F0805000905C48016884
:100D5000C90513D40168834641F480710160FFF72F
:100D60005DFD824606E000BFFFF758FDA0EB0A00DC
:100D700064284ED8DBF80000C005F5D5E0680128EE
:100D80000AD008B1052813D0286A20F00100286293
:100D9000286A20F0040002E0286A40F0010028627E
:100DA000E06841F2883B98B1FFF738FD82460BE0DE
:100DB000286A40F004002862EEE700BFFFF72EFD2E
:100DC000A0EB0A0159455AD8286A8007F6D50CE0ED
:100DD000FFF724FD824605E0FFF720FDA0EB0A01A6
:100DE00059454CD8286A8007F6D41FB1E86920F02D
:100DF0008050E861E06988B36968C1F38101022924
:100E000044D00228C6F8608004D0FFF707FD0446EE
:100E100038E034E0FFF702FD074604E0FFF7FEFC90
:100E2000C01B02282BD828688001F7D4206AB0F5AF
:100E3000803F05D16868A16820F4003008436860ED
:100E4000D4E908010843696821F474110843686013
:100E5000C6F86090FFF7E2FC044606E025E000BF1C
:100E6000FFF7DCFC001B022809D828688001F7D5B1
:100E70001BE000BFFFF7D2FC001B022802D90320B1
:100E8000BDE8F88F28688001F4D40EE00128F7D07F
:100E90006868226A00F48031914204D1616A00F4EA
:100EA0007010884201D00120EAE70020E8E7000046
:100EB00000100240000042428004424248000020EC
:100EC000007000407047704770B590F83C20012AD0
:100ED00026D0012480F83C40022280F83D2003689F
:100EE0005A689D6822F070060A6832435A600D4BBA
:100EF00002689A4208D0B2F1804F05D00A4B9A425C
:100F000002D00A4B9A4204D1496825F08003194364
:100F1000916080F83D40002180F83C10084670BD8B
:100F2000022070BD002C0140000400400008004079
:100F300010B5040003D094F83D0010B107E0012083
:100F400010BD002084F83C00204600F01FF802206D
:100F500084F83D00211D206800F0E6FF012084F8A0
:100F6000460084F83E0084F83F0084F8400084F88E
:100F7000410084F8420084F8430084F8440084F877
:100F8000450084F83D00002010BD000008B5016850
:100F90001048B1F1804F0BD00F4A914207D1C1697F
:100FA00041F00201C161C06900F00200009008BD7B
:100FB000C16941F00101C161C069002200F0010076
:100FC000009011461C20FFF7AFFCBDE808401C2034
:100FD000FFF79CBC001002400004004090F83D1058
:100FE000012901D001207047022180F83D100168DD
:100FF000CA6842F00102CA6000680B49884208D002
:10100000B0F1804F05D00949884202D00849884292
:1010100004D1816801F00701062903D0016841F07D
:101020000101016000207047002C014000040040D5
:10103000000800400168CA6822F00102CA60016825
:101040000A6A41F211131A4207D10A6A9B101A4226
:1010500003D10A6822F001020A60012180F83D10E4
:101060000020704770B5044690F83C00012817D066
:10107000012584F83C50022084F83D0020688268F5
:1010800022F0770222F47F4282600868502830D034
:101090000DDC20284DD005DC98B310283BD148E06A
:1010A000022070BD302844D0402834D139E0602877
:1010B00028D0702806D0B0F5805F2CD0B0F5005F46
:1010C00029D10AE0CB68D1E90121206800F06FFF47
:1010D0002068816841F0770109E0CB68D1E90121FE
:1010E000206800F064FF2068816841F480418160DD
:1010F00011E0CA684968206801F00EF850212068A4
:1011000007E016E0CA684968206801F016F8602117
:10111000206800F056FF84F83D50002084F83C0021
:1011200070BDCA684968206800F0F6FF4021206859
:10113000EFE7226801461046EBE7704770B50446BA
:10114000006801694FF00005C943890715D4C168DB
:10115000C943890711D4E91E016101202077206865
:1011600080698007204602D0FFF7E7FF04E000F027
:10117000BFF8204600F04EF9257720680169C94381
:10118000490717D4C168C943490713D46FF0040154
:101190000161022020772068806910F4407F20469A
:1011A00002D0FFF7CAFF04E000F0A2F8204600F0EA
:1011B00031F9257720680169C943090716D4C16848
:1011C000C943090712D46FF0080101610420207798
:1011D0002068C0698007204602D0FFF7AEFF04E018
:1011E00000F086F8204600F015F92577206801699F
:1011F000C943C90617D4C168C943C90613D46FF0DF
:1012000010010161082020772068C06910F4407F38
:10121000204602D0FFF791FF04E000F069F8204675
:1012200000F0F8F8257720680169C943C90708D19B
:10123000C168C943C90704D1891E0161204600F075
:1012400039F920680169C943090609D4C168C9434D
:10125000090605D46FF0800101612046FFF732FED8
:1012600020680169C943490609D4C168C9434906D0
:1012700005D46FF040010161204600F03DF920687F
:101280000169C94389060BD4C168C943890607D4DB
:101290006FF0200101612046BDE87040FFF713BEEA
:1012A00070BD000000B585B0002100910191029150
:1012B000039100680B49884211D10B48816941F0C4
:1012C000040181618069694600F004000490802077
:1012D00000900220019003900448FFF79DF905B0AB
:1012E00000BD000000040040001002400008014062
:1012F000704770B5044690F83C000D4601280AD0AE
:10130000012084F83C0042B1042A18D0082A2AD0CF
:101310000C2A4DD139E0022070BD206800F05AFE41
:101320002068816941F0080181612068816921F0AC
:1013300004018161206881692A69114311E02068F4
:1013400000F070FE2068816941F4006181612068CD
:10135000816921F480618161206881692A6941EA9B
:101360000221816124E0206800F088FE2068C169C4
:1013700041F00801C1612068C16921F00401C16127
:101380002068C1692A69114311E0206800F0A2FEBB
:101390002068C16941F40061C1612068C16921F41C
:1013A0008061C1612068C1692A6941EA0221C16185
:1013B000002084F83C0070BD10B5040003D094F800
:1013C0003D0010B107E0012010BD002084F83C0072
:1013D000204600F01EF8022084F83D00211D206800
:1013E00000F0A2FD012084F8460084F83E0084F855
:1013F0003F0084F8400084F8410084F8420084F8FB
:10140000430084F8440084F8450084F83D0000203F
:1014100010BD70477047000010B50446022249B164
:1014200004290ED0082913D094F84100012816D0C1
:10143000012010BD94F83E000128F9D184F83E2027
:101440000FE094F83F000128F2D184F83F2008E033
:1014500094F840000128EBD184F8402001E084F8A2
:1014600041200122206800F095FD0F492068884244
:1014700003D1426C42F4004242642068884208D0A2
:10148000B0F1804F05D00949884202D0084988420E
:1014900004D1816801F00701062903D0016841F0F9
:1014A00001010160002010BD002C0140000400403B
:1014B0000008004010B5044600680D49884201D17B
:1014C000FFF7B2F92068B0F1804F10D12046FFF746
:1014D000B1FD0848002201680A7082681AB1488884
:1014E00008B1002000E00120BDE81040104710BD09
:1014F000002C014028000020704770477047000012
:1015000010B504460068C16821F49071C16020687C
:10151000416921F001014161206B012804D120685B
:10152000C16821F01001C160216848694FF02002B4
:1015300043064FF000000FD54B6923F040034B6189
:10154000A16B49B109484863A06BFEF717FF50B182
:10155000A06B416B884706E0E08584F83E2020635D
:101560002046FFF7CBFF002010BD00006F210008D0
:1015700070470000F8B5026804461068D1685369E6
:1015800010F00F0F4FF0000554D003F0010601F4E6
:10159000907737435FD0C20705D0CA0503D5226CC8
:1015A00042F001022264420705D5DA0703D0226C1B
:1015B00042F002022264820705D5DA0703D0226CCA
:1015C00042F004022264020707D501F020023243F0
:1015D00003D0226C42F008022264226C002A35D02B
:1015E000800604D5880602D5204600F0E3FD206879
:1015F0004069216CC0F3801001F0080101432046CE
:1016000025D000F0BFFD2068416949061BD541691E
:1016100021F040014161A06BA8B158494163A06B22
:10162000FEF7ACFE002811D0A06B416B01B0BDE805
:10163000F040084783060ED58B060CD52046BDE842
:10164000F84000F0B7BD2046FFF792FFF8BDFFF766
:101650008FFF2564F8BD266B2023012E52D1C606CC
:1016600050D5CE064ED5106850680090506940069F
:101670002AD5A16B086840680004000CEAD0A68D4A
:101680008642E7D9E0858869202818D0D06820F400
:101690008070D0602068416921F0010141612068BB
:1016A000416921F04001416184F83E3025632068A2
:1016B000C16821F01001C160A06BFEF73BFEA08D58
:1016C000E18D401A81B219E0A08DE18D401A81B2FE
:1016D000E08D0028BED00029BCD0D06820F49070E6
:1016E000D0602068426922F00102426184F83E30F5
:1016F00025632068C26822F01002C2602046FFF70E
:10170000FCFEF8BD05062BD50D0629D594F83D0045
:101710002128F6D1A068B0F5805F01D12069B0B171
:10172000206A411C2162216800784860E08C401EDC
:101730000004000CE084E4D12068C16821F080013D
:10174000C1602068C16841F04001C160F8BD206AF5
:101750000088C0F308005060206A801C2062E5E722
:101760004006F3D54806F1D5D168204621F0400166
:10177000D16084F83D3000F0E4F8F8BD5F21000846
:1017800070B5040004D094F83D00002510B106E0C7
:10179000012070BD84F83C50204600F023F824203E
:1017A00084F83D002068C16821F40051C1602046E2
:1017B00000F05CFD2068016921F49041016120681E
:1017C000416921F02A0141612068C16841F400515A
:1017D000C1602564202084F83D0084F83E0000208C
:1017E00070BD000030B585B00024009401940294CF
:1017F00003940068184988422CD11848816941F443
:1018000080418161816901F480410491816941F0E5
:10181000040181618069124D00F0040004904FF4CE
:101820000070009002200190032003906946284632
:10183000FEF7F2FE2815CDE9000469462846029419
:10184000FEF7EAFE002211462520FFF76DF825205D
:10185000FFF75CF805B030BD0038014000100240D1
:101860000008014090F83E30202B0ED159B152B102
:1018700090F83C30012B08D0012380F83C30002345
:10188000036300F04FBD012070470220704770478E
:101890002DE9F843044690F83D001F4616460D46D4
:1018A00020284CD1C5B1BEB194F83C00012846D0E7
:1018B000012084F83C004FF00008C4F8408021204B
:1018C00084F83D00FEF7AAFFA6848146E684A0685E
:1018D000B0F5805F03D004E00120BDE8F883206903
:1018E00028B12E465FF0000584F83C800EE000260B
:1018F000FAE78021204600F030FDA0B9AEB116F81D
:10190000010B21684860E08C401EE084E08C4B466F
:101910004FF0000200970028EBD14FF04001204625
:1019200000F01BFD30B10320D7E735F8020BC0F300
:101930000800E6E7202084F83D000020CDE70220E3
:10194000CBE77047FEE700002DE9F05F0025DFF8E8
:10195000E090DFF8E0B00C462E464FF4007A90B1EC
:1019600035A000F039FD99F801104846012907D04B
:10197000017801295AD189F800600122514650E0CE
:1019800089F801604BE040F222312F48FEF7F3FB6B
:10199000DFF8B8800127D8F8040001680F700068EC
:1019A000618841802848618820F8021B61884A00CC
:1019B000211DFEF7C7FB6088211D4200D8F80400F6
:1019C0000068001DFEF7BEFB99F80020204948463C
:1019D000012A03D04278012A0AD012E089F8006077
:1019E0000F70012251465846FEF713FF032508E009
:1019F00089F801604F70012280215846FEF709FFE7
:101A0000012540F2911421460F4800F0E9FD2A46D5
:101A100021460D4800F0D8FF0EA000F0DDFC0122A9
:101A200080215846BDE8F05FFEF7F3BEBDE8F09FA9
:101A300034000020000C0140CAFDBEDDBDD3CAD574
:101A4000CAA7B0DC0D0A00008801002000000020B9
:101A500037000020CAFDBEDDBDD3CAD5B3C9B9A6C3
:101A60000D0A000010B5044604A000F0B5FC0748BC
:101A7000012102681170846010BD0000BAECCDE253
:101A8000BFAACABCBDD3CAD50D0A000028000020D9
:101A90002DE9F047054604212C48FFF7BDFC7DB138
:101AA000287868B1688800F03BFF294C0100606825
:101AB000816008D0002646706988818031460DE03B
:101AC0000220BDE8F0870320FBE700BF05EB4102E1
:101AD0008368928823F81120491C89B282888A423F
:101AE000F4D80025194FDFF86C904FF4ED7817E02B
:101AF000417811B139688E6302E03A68C2F83880E3
:101B0000806830F8150000F04FFD60684178D1B171
:101B10000021417080214846FEF773FE6D1CADB276
:101B200060688188A942E3D8806818B100F092FD0E
:101B30006068866038688663012280214846FEF727
:101B400068FE0020BDE70121E3E70000AC1800209B
:101B500028000020000C0140084810B5006800244F
:101B60000470448000F012FD00F09CF800F0EEF8E4
:101B700000F020F902480068846310BD28000020AE
:101B8000AC18002070B5154886B0816941F0080195
:101B900081618069002400F0080004904FF48050B7
:101BA000CDE900040E4E022569463046CDE90245D6
:101BB000FEF732FD2803CDE9000469463046CDE941
:101BC0000245FEF729FD6803CDE900046946304669
:101BD000CDE90245FEF720FD06B070BD00100240C1
:101BE000000C01402DE9F0412D4D4FF480570024A9
:101BF00039462846FEF700FE4FF47A7670B16F142E
:101C000039462846FEF7F8FDE8B17F0039462846F8
:101C1000FEF7F2FD68B30020BDE8F0810A20FEF770
:101C2000F9FB03E00A20FEF7F5FB641C3946284661
:101C3000FEF7E2FD08B9B442F4DB642C01DD0320B9
:101C4000EAE70120E8E70A20FEF7E4FB03E00A20C8
:101C5000FEF7E0FB641C39462846FEF7CDFD18B1BF
:101C6000642C04DD0620D7E7B442F0DBFAE7042059
:101C7000D2E70A20FEF7CEFB03E00A20FEF7CAFBFC
:101C8000641C39462846FEF7B7FD18B1642C04DD04
:101C90000920C1E7B442F0DBFAE70720BCE7000007
:101CA000000C014010B586B02348002402948169DD
:101CB00041F010018161816901F010010491816995
:101CC00041F020018161816901F020010491816965
:101CD00041F004018161816901F00401049181698D
:101CE00041F0080181618069694600F008000490B4
:101CF0004FF40050009001200190032003900F4802
:101D0000FEF78AFC4FF46070009069460C48FEF7BD
:101D100083FC202000900B48CDE9010469460A4865
:101D2000FEF77AFC002211461720FEF7FDFD172072
:101D3000FEF7ECFD06B010BD00100240001001409F
:101D4000000C0140000031100008014010B586B0C1
:101D500000241748009401940294039404944FF0D3
:101D60008041059401604721C0E901144CF24F31D4
:101D7000C0E9031480218161FFF7DAF808B1FEF7AA
:101D80004CFA4FF48050009069460948FFF76AF911
:101D900008B1FEF742FA049404A905480594FFF738
:101DA00093F8002801D0FEF738FA06B010BD000005
:101DB0006418002010B58EB000240794089409948C
:101DC0000A940B941C2168460C94FEF7D4F9214820
:101DD0001F49C0E9001440F26A71C0E90241046180
:101DE0008461FFF7A5F808B1FEF717FA4FF48050A9
:101DF000079007A91748FFF735F908B1FEF70DFA64
:101E00001448FFF7D9FA08B1FEF707FA0B940BA9AB
:101E100010480C94FFF758F808B1FEF7FEF960205F
:101E200000904FF4ED70CDE90104042269460948A1
:101E30000494FFF75EFA08B1FEF7EFF90548FFF7E3
:101E400031FA04210348FFF7E7FA0EB010BD000095
:101E500000040040AC18002010B5114C0F480C21B4
:101E600020604FF4E13060600020A060E060C4E9D1
:101E70000401A061E0612046FFF782FC08B1FEF793
:101E8000CCF92068C16841F01001C160BDE8104084
:101E90004FF4967203490248FFF7E4BC0038014052
:101EA000CC07002059000020FEE7FEE7704770478E
:101EB000704730B58FB014210AA8FEF75CF92821CD
:101EC0006846FEF758F901200024009000040394AE
:101ED0000494CDE901040225CDE907504FF4E01048
:101EE00009906846FEF75EFE00B1FEE70F200A90FB
:101EF000CDE90B544FF48060CDE90D0402210AA80E
:101F0000FEF744FD002800D0FEE70FB030BD70475B
:101F10000148FFF713B90000100800200148FFF73F
:101F20000DB9000064180020F0B50268164B174C7C
:101F3000174D4FF08047984205D0B84203D0A042D9
:101F400001D0A84203D122F070064A683243984279
:101F500005D0B84203D0A04201D0A84203D122F458
:101F60004074CA6822434C6922F080022243026016
:101F70008A68C2620A688262984201D10969016373
:101F800001214161F0BD0000002C0140000400402F
:101F90000008004010B501F01F030121046A9940B8
:101FA0008C430462016A9A401143016210BD10B56E
:101FB000846842EA032224F47F440A432243826075
:101FC00010BD826822F070020A4342F0070181606E
:101FD0007047000030B5026A22F001020262026A14
:101FE0004368846924F073050C682C4322F00205D1
:101FF0008A682A430A4DA8420BD122F00805CA6814
:1020000023F440732A434D6922F004021D438B6977
:102010002B434360846149684163026230BD000024
:10202000002C014030B5026A22F010020262026AFE
:10203000436884690D6824F4E64444EA05248D6805
:1020400022F0200242EA05120B4DA8420ED1CD68C3
:1020500022F0800242EA05124D6923F4406343EA0C
:1020600085038D6922F0400243EA85034360846161
:1020700049688163026230BD002C014030B5026ABC
:1020800022F480720262036A4268C46923F4007316
:1020900024F073050C682C438D6843EA05230C4D2E
:1020A000A8420ED1CD6823F4006343EA05234D69AD
:1020B00022F4405242EA05128D6923F4806342EA19
:1020C00005124260C4614968C163036230BD00000B
:1020D000002C014030B5026A22F480520262046A88
:1020E0004268C3690D6823F4E64343EA05238D681B
:1020F00024F4005444EA0534064DA84204D14D6945
:1021000022F4804242EA85124260C3614968016458
:10211000046230BD002C014010B5036A046A24F04B
:1021200001040462846924F0F00444EA021423F0F8
:102130000A020A438461026210BD10B5036A23F0EB
:10214000100303628369046A23F4704343EA023292
:1021500024F0A00343EA01118261016210BD10B5B1
:10216000406A0021C185C184FFF702FA10BD10B595
:10217000406A0021C185202280F83E200163FFF7DC
:10218000BDF910BD0168CA6822F49072CA60016886
:102190004A6922F001024A61016B012904D10168F8
:1021A000CA6822F01002CA60202180F83E10002187
:1021B0000163704708B590F83E10222901D0022033
:1021C00008BD82684FF480539A4201D1016921B160
:1021D000816A9A421BD04AB10AE00268816A526859
:1021E000C2F308020A80816A891C08E0026972B1A0
:1021F0000268526802F07F020A70816A491C81629B
:10220000C18D491E0904090CC18503D019E002687B
:102210005268F1E70168CA6822F02002CA600168CA
:10222000CA6822F48072CA6001684A6922F0010219
:102230004A61202180F83E10016B012903D0FFF78D
:1022400026FB002008BD002101630168CA6822F056
:102250001002CA6001680A68D20602D50A68496895
:102260000091818DFFF749F9EBE7000070B5044656
:1022700000680169E26821F440511143016121695C
:10228000A0680843616908432168CA6841F20C6389
:102290009A430243CA6020684169A26921F44071EF
:1022A000114341611E492068884202D1FEF734FC87
:1022B00001E0FEF721FC00EBC00101EB00126068B9
:1022C00064218000B2FBF0F3B3FBF1F36FF018066A
:1022D0007343B2FBF0F5B2FBF0F605EB8305322356
:1022E00003EB0515B5FBF1F5B6FBF1F605F0F005CE
:1022F00005EB0615B2FBF0F6B2FBF0F0B0FBF1F027
:102300006FF01802504306EB800003EB0010B0FBA7
:10231000F1F0216800F00F002844886070BD0000D3
:102320000038014081628285C28500210164222239
:1023300080F83E2080F83C100168CA6842F4807240
:10234000CA6001684A6942F001024A610068C168D6
:1023500041F02001C160002070472DE9F04198460E
:1023600017460E460446069D1DE0681C1BD02DB185
:10237000FEF754FAA0EB0800A84214D92068C168FF
:1023800021F4D071C1602068416921F001014161EF
:10239000202084F83D0084F83E00002084F83C00B2
:1023A0000320BDE8F0812068006836EA000004D010
:1023B0000020B842D9D00020F3E70120F9E700005F
:1023C00010B500F06FF9BDE810400148FFF7D2B832
:1023D000CC070020FEE700000FB4054B10B503A9A1
:1023E000044A029800F028F810BC5DF814FB0000C5
:1023F0003D2600084C0000200907090E002804DBD8
:1024000000F1E02080F80014704700F00F0000F1A8
:10241000E02080F8141D704702E008C8121F08C1B0
:10242000002AFAD170477047002001E001C1121F55
:10243000002AFBD1704700002DE9FF4F89B09B4671
:102440000446002506E025280BD05A460B999047F4
:10245000641C6D1C20780028F5D10DB02846BDE81D
:10246000F08F0027B8460122474900E0074314F8DF
:10247000013F203B02FA03F00842F7D120782E28D2
:1024800019D114F8010F47F004072A280ED06FF075
:102490002F022078A0F1300109290CD808EB88011F
:1024A00002EB410100EB0108641CF2E70A98641C8E
:1024B00050F8048B0A9020780028CED0642808D0E9
:1024C000692806D075281ED05A460B9990476D1C76
:1024D00058E00A994FF00A0901C90A91002802DA66
:1024E00040422D2102E0390504D52B218DF8201022
:1024F000012103E0F90704D02021F7E78A4608AE5E
:102500000DE00021FAE70A994FF00A0901C90A9182
:10251000F7E74946FDF747FE303106F8011D002870
:10252000F7D1ADEB060000F12009780701D44FF098
:102530000108C84502DDA8EB090000E00020804644
:10254000002706E008A85A46C05D0B9990476D1C0D
:102550007F1C5745F6DB04E030205A460B99904724
:102560006D1CB8F10001A8F10108F5DC05E016F8D2
:10257000010B5A460B9990476D1CB9F10001A9F166
:102580000109F4DC641C65E70928010005480449D9
:102590004FF47A724160B1FBF2F1018070470000A4
:1025A00040420F000800002070B50B4900220C6863
:1025B000E56A0A49636A09884843616A9942FCD01E
:1025C00002D2A3EB010302E0A5EB010633441A4457
:1025D0000B468242F1D370BD100800200800002095
:1025E000F0B585B00E460746FDF7BEFF0020114D41
:1025F000012101900090CDE9035172B6694601A80E
:10260000FDF714FF0C490128087011D0002409E0DF
:1026100037F8142005EB440100230120FDF764FF87
:10262000641CA4B2B442F3D3FDF754FF62B6002099
:1026300005B0F0BD007800081000002013B54FF67B
:10264000FF73012269460248FFF722F900981CBD7A
:10265000CC07002010B5002821D0114B0022001F0C
:10266000196803E0814203D80A4649680029F9D174
:1026700052B11368841A9C4204D100681844106057
:10268000104602E0506000E0186039B102680B1A91
:10269000934203D10B681A4402604968416010BD3F
:1026A00050000020F8B5194908680268C2F300120A
:1026B000002A29D00268002540680090C88D144C7B
:1026C000C0F5967013A184F82D01012084F82E0125
:1026D0000246601CFDF75AFD0F4E30B101220FA1DA
:1026E000601CFDF753FD10B103E0357001E00220DE
:1026F00030700648FEF704FF611CBDE8F8404FF457
:1027000096720248FFF7AEB8F8BD0000CC07002073
:1027100058000020310000000000002032000000BE
:10272000FEF78AF8FFF7C5FBFFF716FAFFF794FBF1
:10273000FFF728FAFDF760FD694D0122510368603B
:102740006848FEF766F8684F012280213846FEF798
:1027500060F8012211023846FEF75BF801225102AF
:102760003846FEF756F8DFF88491614CDFF884B103
:102770004FF4E07801264FF0000A00BFFFF732FA6D
:102780000A2848D2DFE800F04705470C1747192010
:10279000477340F222315648FDF7EDFC012219E063
:1027A000002280213846FEF734F889F8016052484B
:1027B000FFF758F92FE0002200E001224FF480716A
:1027C0003846FEF726F826E040F222314848FDF769
:1027D000D2FC032240F29111454800F0D7F820883E
:1027E0003338404514D845A0FFF7F6FD6868016806
:1027F0000E70026821885180218800684A00A11C5F
:10280000001DFDF79FFC68680068FFF741F902E0D2
:102810003EA0FFF7E1FD9BF80000012830D09BF8B7
:1028200001000128AAD140F222313148FDF7A3FC72
:10283000012240F291112E4800F0A8F82088333888
:10284000404547D82DA0FFF7C7FD686801680E70A6
:10285000026821885180218800684A00A11C001D5F
:10286000FDF770FC68680068FFF712F935E089F839
:1028700000602148FFF7F6F800224FF400719FE74F
:1028800040F222311A48FDF776FC032240F2911102
:10289000174800F07BF820883338404514D817A03B
:1028A000FFF79AFD686801680E7002682188518000
:1028B000218800684A00A11C001DFDF743FC6868E0
:1028C0000068FFF7E5F802E010A0FFF785FD8BF840
:1028D00000A053E70DA0FFF77FFD8BF801A04DE7A7
:1028E0000000002000100140000C014034000020D6
:1028F000AA0400203700002049190008737461728F
:102900007420746F2073656E640D0A004E6F20563C
:1029100061696C656420436F6465200D0A000000E6
:10292000F0B50B30154D20F007010024144A0FE0DC
:1029300003688B420BD38B4205D95E1A4318476854
:10294000C3E9006700E04368136002C004E0021DB1
:1029500010680028ECD12046002802D1286808B170
:102960000020F0BD064A07481060074A121A22F0FC
:102970000702C0E9002401202860D7E754000020A6
:10298000500000201C190020181B002010B50B4C13
:102990000B4B012A05D0022A03D0032A0DD1094A84
:1029A00007E0DC6006E0DA68128820F8022BDA68BB
:1029B000921CDA60491E89B2F5D210BD0070000881
:1029C000100000200074000870B586B014460D4653
:1029D0000646FDF7C9FD002314480093012C06D0DC
:1029E000022C04D0032C0DD0012006B070BD029043
:1029F0000120CDE9030372B604A96846FDF716FD70
:102A000000240CE00A48F2E7029836F8142000EBA4
:102A1000440100230120FDF767FD641CA4B2AC4211
:102A2000F2D3FDF757FD62B60020DEE70070000824
:102A30000074000800000000000000000102030410
:102A40000607080900000000010203046C2A0008C0
:102A5000000000205800000018240008C42A0008C4
:102A600058000020C01E00002824000804000000B8
:102A70000000000000000000000000000000000056
:102A800000780008007C0008007C0008240000207A
:102A9000000000005810002058180020000000001E
:102AA0000000000000000000010000001000000015
:102AB000000000000024F4000000000000000000FE
:042AC0000000000012
:04000005080000ED02
:00000001FF
