:020000040800F2
:10000000504A002099010008E72E000877290008CF
:10001000E52E0008D9100008613400080000000037
:1000200000000000000000000000000001010008C6
:10003000071100080000000045010008E92E000833
:10004000B3010008B3010008B3010008B3010008C0
:10005000B3010008B3010008B3010008B3010008B0
:10006000B3010008B3010008B3010008B3010008A0
:10007000B3010008B3010008B3010008B301000890
:10008000B3010008B3010008B3010008B301000880
:10009000B3010008B3010008B3010008091100080A
:1000A000B3010008752F0008B3010008B301000870
:1000B000812F0008B3010008B3010008B301000854
:1000C000B3010008B3010008B3010008B301000840
:1000D000B301000825340008393400084D34000805
:1000E000B3010008B3010008B3010008DFF80CD029
:1000F00000F038FD00480047B55D0008504A002078
:10010000224B19680868B0E8F00F80F30988BFF344
:100110006F8F4FF0000080F311884EF00D0E704786
:100120000000000006480068006880F3088862B696
:1001300061B6BFF34F8FBFF36F8F00DF00BF00BF0B
:1001400008ED00E0EFF30980BFF36F8F0F4B1A68E3
:1001500020E9F00F106008B54FF0500080F31188CF
:10016000BFF34F8FBFF36F8F07F0BCFA4FF0000063
:1001700080F31188BDE8084019680868B0E8F00FFE
:1001800080F30988BFF36F8F704700BFB000002075
:10019000EFF3058070470000064880470648004797
:1001A000FEE7FEE7FEE7FEE7FEE7FEE7FEE7FEE727
:1001B000FEE7FEE7732F0008ED000008202A04DBAD
:1001C000203A21FA02F00021704721FA02F3D040D0
:1001D000C2F12002914008431946704738B5D0E972
:1001E0000221491E01EB410102EBC1014268C1EB52
:1001F000011102EB81010268C1EB011102EB8102E6
:10020000D0E9043101EB410103EB81013023A1F579
:10021000527191FBF3F4174D6C4302EBC41291FB46
:10022000F3F403FB141100921A2902DB124B1A4457
:1002300000920C2291FBF2F3104C6343009C04EB00
:10024000C313009391FBF2F302FB13110C4A08E075
:10025000491E40F2A324535C6343009C04EBC31388
:1002600000930029F4DC0146684600F0D5F90098B7
:1002700038BD00003F0C0F008051010067C2030031
:10028000D17C000840EA01039B0703D009E008C9BC
:10029000121F08C0042AFAD203E011F8013B00F84B
:1002A000013B521EF9D27047D2B201E000F8012B97
:1002B000491EFBD270470022F6E710B513460A46E6
:1002C00004461946FFF7F0FF204610BD421E12F803
:1002D000013F002BFBD111F8013B02F8013B002B41
:1002E000F9D1704730B505462A460B4612F8010B86
:1002F00013F8014B08B1A042F8D01CB1002802D07D
:100300006D1CF1E7284630BD421C10F8011B002986
:10031000FBD1801A704710B5002200E0521C835CAC
:100320008C5CA34201D1002BF8D1D8B2E1B2401AC3
:1003300010BD30B504460020034600E05B1C93422C
:1003400003D2E05CCD5C401BF8D030BD034611F811
:10035000012B00F8012B002AF9D11846704770B51F
:10036000064603F0B3F8046805460A220021304629
:1003700000F0E6F92C6070BD30B480EA010202F0B2
:10038000004530F0004221F0004013D090B1C30D81
:10039000D40DC2F31601C0F31600E41A41F40001B3
:1003A00040F400027D34914201D3641C00E0490016
:1003B000002C02DA30BC002070474FF4000000230C
:1003C000914201D3891A034340084FEA4101F7D112
:1003D00051B1914202D14FF0004105E002D24FF0FD
:1003E000010101E06FF0010103EBC450284430BC6F
:1003F00000F0DEB92DE9FE4F81EA030404F0004469
:1004000021F0004100944FF0000B23F0004350EA2C
:1004100001045ED052EA03045BD0C3F30A54C1F373
:100420000A552C44A4F2F3340194A0FB0254C1F306
:10043000130141F48011C3F3130343F4801301FB50
:10044000024400FB034E840A970A44EA815447EAB7
:100450008357A4FB076802958D0A05FB07854FEAC1
:10046000932C04FB0C542705029D4FEA065847EADB
:100470001637B5EB08056EEB070C870E920E47EAB0
:10048000811742EA8312A7FB0201B6EB0B0164EB72
:1004900000042B0D43EA0C335E1844EB1C50DA4683
:1004A0005146E7FB0201C5F313044FEA0B3343EA5D
:1004B00014534FEA0432019C43EA0603A4F10C04EE
:1004C0000294009CCDE900B400F0B8F903B0BDE897
:1004D000F08F00200146F9E7C10F80EAE070084480
:1004E000CA079623002100F06CB99623002211461A
:1004F00000F067B970B5C1F30A5201F0004500245D
:10050000C1F3130140F2FF3341F480119A4201DA42
:10051000002070BD40F233439A42A2F2334203DC22
:100520005242FFF74BFE00E090402C43F1D0404296
:1005300070BDC1F30A5210B5C1F3130140F2FF338D
:1005400041F480119A4201DA002010BD40F2334399
:100550009A42A2F2334203DC5242FFF72FFE10BD53
:10056000904010BD00F0004230F000400AD0C10DB4
:1005700001F56071C0F3160042EA0151C20840075C
:100580001143704700200146704730B50B460146C5
:1005900000202022012409E021FA02F59D4205D322
:1005A00003FA02F5491B04FA02F52844151EA2F1CC
:1005B0000102F1DC30BD2DE9F05F054600209246D6
:1005C0009B4688460646814640241BE02846414615
:1005D00047462246FFF7F2FD53465A46C01A91415C
:1005E00010D311461846224600F0CEFA2D1A67EBBA
:1005F00001084F4622460120002100F0C5FA17EB02
:1006000000094E41201EA4F10104DFDC48463146BA
:100610002A464346BDE8F09F10B500683C22B0FB77
:10062000F2F302FB1303B0FBF2F00B60B0FBF2F34A
:1006300002FB1303B0FBF2F018224B60B0FBF2F3A5
:1006400002FB1303B0FBF2F0021D8B600723B2FB29
:10065000F3F403FB1422800040F2B55300F66C3033
:100660008A61B0FBF3F2B0FBF3F403FB14004432F5
:1006700080084A61C8613B2802D3920700D0401C21
:100680000022074C13460A61E25C824203D8801ABA
:100690005B1C0B61F8E7401CC860084610BD0000F9
:1006A000DD7C00080FB4002300B589B00CA90091CF
:1006B0000B996FF00042CB601E4B06931E4B0793C5
:1006C0000423CDE901321D4A089202466B46002000
:1006D00000F00AFB09B05DF814FB70B586B0064661
:1006E0004FF0FF300091CDE90101002015460C4686
:1006F00004903246694604A8FFF7D4FF03460498E5
:10070000211825B108B10A4600E022462A600028D7
:100710000DD0002B02DD0098884208D0081B009401
:10072000CDE901043246694604A8FFF7BBFF06B0D5
:1007300070BD0000210F00083F0F0008D50B000816
:100740002DE9F04791460F4680460446002614F8EE
:10075000015B2DB100F03AFA0068405DC007F6D1A8
:100760002B2D02D02D2D18D0641E4A463946204626
:1007700000F0F6FB27B13968A14201D1C7F800802B
:1007800071054FF002040BD54042002803DD02F052
:100790009DFE0460A007BDE8F08746F48066E4E7AC
:1007A0000028F8DA02F092FE04606FF00040F2E7F1
:1007B0000029A8BF7047401C490008BF20F0010075
:1007C000704710B4B0FA80FC00FA0CF050EA010453
:1007D00004BF10BC704749B1CCF1200421FA04F4E5
:1007E00011FA0CF118BF012121430843A3EB0C01BE
:1007F000CB1D4FEA00614FEA102042BF002010BC21
:10080000704700EBC35010440029A4BF10BC7047D0
:10081000401C490008BF20F0010010BC704710B513
:10082000141E73F1000408DA401C41F10001921813
:100830005B411A4301D120F0010010BD2DE9F04DBC
:1008400092469B4611B1B1FA81F202E0B0FA80F211
:100850002032904600F098F904460F4640EA0A001C
:1008600041EA0B0153465A46084313D0114653EA56
:10087000010019D0C8F140025046FFF79FFC054621
:100880000E4650465946424600F07EF9084305D0D0
:10089000012004E020463946BDE8F08D00200543E4
:1008A00046EAE0762C4337430A986305E40AA0EB56
:1008B00008000022FD0A44EA47540A3002D500200D
:1008C0000146E9E7010510196941DDE9084500190C
:1008D0006941BDE8F04DA2E72DE9FE4F804681EA6F
:1008E0000300C00F0C46009021F0004123F00045AA
:1008F000B8EB0200A94105D24046214690461C466D
:100900000B46024623F00040104347D0270DC7F3A3
:100910000A00C3F30A510290401A019040286BDA92
:10092000C3F3130040F4801B0098924620B10023CB
:10093000D2EB030A63EB0B0B01985946C0F140025E
:10094000504600F021F906460D4650465946019A98
:1009500000F029F910EB08006141002487EA1152E8
:1009600084EAE7731A4340D0009A62B3019A012ADD
:100970004FEA075215DC001B61EB02014FF0004209
:1009800002EA0752CDE90042001C41F580113246CF
:100990002B46FFF753FF03B0BDE8F08F40462146DA
:1009A000F9E7001B61EB0201001C41F58013001800
:1009B0005B412018A2F5001747EB030140EAD57010
:1009C000B6196D4111E06D084FEA360645EAC0756B
:1009D0004FEA0752001B61EB0201001C41F5801138
:1009E00049084FEA30000019514132462B4603B006
:1009F000BDE8F04FFFF713BF00980122400000232D
:100A0000D0EB020263EBE073009821464FEAE074FA
:100A1000B8EB000061EB0401E9E783F000435BE71A
:100A200081F0004158E72DE9F04D81EA030404F01C
:100A3000004B21F0004514464FF0000A23F000411E
:100A400050EA050220D054EA01021DD0C5F30A572E
:100A50000246C5F31303C1F31300C1F30A5640F471
:100A6000801543F48013A7EB0608101BD64608F246
:100A7000FD3873EB050002D308F1010801E092187C
:100A80005B41B8F1000F03DA00200146BDE8F08DAC
:100A900000204FF48011064684460EE0171B73EBCE
:100AA000050705D3121B63EB050306434CEA010C53
:100AB00049084FEA300092185B4150EA0107EDD136
:100AC00052EA030012D082EA040083EA05010843D7
:100AD00005D0101BAB4106D20122002306E0002204
:100AE0004FF0004302E06FF0010253101AEB0600D2
:100AF0004CEB085110EB0A0041EB0B01BDE8F04D47
:100B0000FFF78DBEC1F30A52C1F3130140F2FF3368
:100B100041F480119A4202DA00200146704740F207
:100B200033439A42A2F2334202DC5242FFF746BB01
:100B300000F02AB830B5041E71F1000404DB4FF058
:100B40000044404264EB0101141E73F1000405DB14
:100B50001C464FF00043524263EB0403994208BF26
:100B6000904230BD064C074D06E0E06840F00103BE
:100B700094E8070098471034AC42F6D3FFF7BAFA6E
:100B8000987D0008B87D0008202A04DB203A00FA8E
:100B900002F1002070479140C2F1200320FA03F3D4
:100BA000194390407047202A06DBCB17203A41FAC0
:100BB00002F043EAE07306E041FA02F3D040C2F1EA
:100BC00020029140084319467047000000487047D2
:100BD0006C7D000810B50446FFF7F8FF0068005D63
:100BE00000F0010010BD00002DE9FF4F087881B032
:100BF0009946FF2805D0491C2D2804D00024002345
:100C000008E000230BE00124F9E703EB830300EB8A
:100C10004303491C0878FF28F7D104B15B42002048
:100C20000090147801462D2C01D02B2C04D1521C9D
:100C30002D2C12D00024009400251678FF2E0ED003
:100C40000A24A0FB04C801FB0481002700FB071154
:100C5000521C16EB0C006941EFE70124EBE79944C5
:100C600050EA01020ED00024AA4D2646DFF8A882E1
:100C700000F0D3F982468B46B9F1000009DAC9F1D8
:100C800000071BE001980021C0E9001105B0BDE894
:100C9000F08F074612E0F80707D022462B46304671
:100CA0004146FFF7A7FB0646884622462B461046DC
:100CB0001946FFF79FFB04460D467F10002FEAD12F
:100CC000B9F1000F324643465046594602DAFFF763
:100CD000AAFE01E0FFF78EFB009A0AB181F0004105
:100CE000019AC2E90001D1E72DE9FF4F1F468DB0FF
:100CF000D7E901464FF0FF382E2045464FF0000956
:100D00000B90B9696D1C0E988847396A82468847EE
:100D10000028F6D1BAF1FF3F0AD024F4D064002EA7
:100D200011DDBAF12B0F08D0BAF12D0F0BD102E073
:100D3000404611B0ABE744F48064B9696D1C0E986D
:100D400088478246761E6946600501D52D2000E061
:100D50002B208DF8000001F1010B0DF1200809E0B6
:100D6000B9696D1C0E98884782460F9844F4007448
:100D7000761E0560002E02DDBAF1300FF0D00B991F
:100D80008A453ED144F0800406E00F99681CA9F121
:100D9000010944F400740860B9696D1C761E0E9850
:100DA000884782463028F0D02BE00B998A4505D140
:100DB000200603D444F08004761E18E0504602F06A
:100DC00057FC08B30DF11301761E44F400748B45F3
:100DD00008D2AAF130000BF8010B200607D5A9F1C3
:100DE000010003E0200602D409F101008146A005BC
:100DF00002D50F99681C0860B9696D1C0E98884768
:100E00008246002ED1DC53E0002E51DDBAF1650F91
:100E100002D0BAF1450F4BD1A00549D5B9696D1C77
:100E200024F44074761E0E9888478246002E0CDD0E
:100E30002B2804D0BAF12D0F07D144F48074B9697E
:100E40006D1C0E9888478246761EE00501D52D213F
:100E500000E02B2108F8011BCDF82C8021E00DF1DA
:100E60002901761E44F4007488450CD2AAF13000A2
:100E700010F0FF0088F8000002D10B99884509D9CD
:100E800008F1010806E0E00501D5244801E042F23E
:100E90000F708146B9696D1C0E98884782460F987D
:100EA0000560002E04DD504602F0E2FB0028D6D19A
:100EB000F9690E988847FF208BF8000088F8000039
:100EC0000020069007904B466A4608A906A8FFF73F
:100ED0008BFEA00502D46FF001002AE714F0240F66
:100EE0000AD0E00714D1DDE906123868031D3B6023
:100EF0000068C0E900120BE0DDE9060100F099F896
:100F00000146E00704D13868021D3A6000680160BC
:100F100028460EE7000024400000F03FF1D8FFFF14
:100F2000426842B1016811F8013B23B1521EC0E989
:100F30000012184670470121C160881E7047426840
:100F40005AB1C368016843B983688B4205D0491E12
:100F5000521CC0E90012002070474FF0FF3070476C
:100F60002DE9F05F82460078002715468B460AF18E
:100F70000104B946302801D09DB113E014F8010BEB
:100F80000127782803D0582801D045B10AE00DB1D7
:100F9000102D07D10027102514F8010B02E00825B9
:100FA00000E00A250026B0460EE005FB080005FB20
:100FB00006F1012701EB10461FFA80F8B6F5803FD5
:100FC00000D3B94614F8010B294600F018F80028A0
:100FD000EBDABBF1000F05D00FB1641E00E0544600
:100FE000CBF80040B9F1000F06D002F06FFA0221F1
:100FF0000160C81EBDE8F09F48EA0640FAE73A28BB
:1010000000D2303820F02002412A01D3A2F137006B
:10101000884201D34FF0FF3070470EB540F23342A3
:1010200002920022CDE900221346FFF707FC03B02D
:1010300000BD01F0004330B421F0004150EA01024C
:1010400006D00A0DA2F56072C1F31301002A02DC7A
:1010500030BC00207047440F44EAC104C100E018CE
:1010600030BC00EBC250FFF7A3BB70B58C1810F872
:10107000015B15F0070301D110F8013B2A1106D1DD
:1010800010F8012B03E010F8016B01F8016B5B1EF7
:10109000F9D12B0705D40023521E0DD401F8013BD2
:1010A000FAE710F8013BCB1A921C03E013F8015B3E
:1010B00001F8015B521EF9D5A142D8D3002070BDC2
:1010C000044803490022006801600A70704700006C
:1010D0006C3D00203C020020FEE770B505464FF64F
:1010E000FF7000224AF201040AE0AB5C584008237A
:1010F000C6074FEA500000D060405B1EF8D1521C7A
:101100008A42F2DB70BD7047202000F0DFB972B672
:10111000FEE7000006490020C8610648016941F069
:1011200004010161016941F0400101617047000063
:101130001815002000200240064A0021D16106490E
:101140000A6942F002020A614861086940F0400001
:10115000086170471815002000200240044B00224F
:10116000DA61044A136943F0010313610180704797
:10117000181500200020024014480022C168CB0648
:10118000134904D5CA6942F00202CA611022C36839
:101190005B0705D5CB6943F00103CB6142F0040244
:1011A000C369DB0707D0CB6943F00403CB61C16996
:1011B00021F00101C161A2F58071013901D0C26045
:1011C0007047C16921F00101C161704700200240F0
:1011D0001815002070B5054600F086FA0646114C39
:1011E00009E0681C07D025B100F07EFA801BA842F8
:1011F00001D9032070BDE068C007F2D1E068800625
:1012000001D52020E060E068C00605D4E069C00791
:1012100002D1E068400703D5FFF7AEFF012070BDA3
:10122000002070BD0020024010B590F8211000226F
:10123000022905D00421816380F82020012010BDFF
:1012400001680B6823F00E030B6001680B6823F044
:1012500001030B6090F84030C46B012101FA03F3E5
:10126000636080F8211080F82020104610BD000037
:1012700010B590F821100024022903D004218163C5
:1012800001243DE001680A6822F00E020A6001684C
:101290000A6822F001020A601A4A0168914201D1EB
:1012A000012121E0174A1432914201D110211BE0A3
:1012B000144A2832914201D1891515E0114A3C3275
:1012C000914201D189140FE00E4A5032914202D16D
:1012D0004FF4803108E00B4A6432914202D14FF45E
:1012E000801101E04FF08071064A083A51600121F7
:1012F00080F82110002180F82010416B01B188474F
:10130000204610BD080002402DE9F047054626485A
:101310000F460126017E01290FD001218146017669
:101320002868DFF888804CF25034022808D0A246A2
:101330002046FFF74FFFA8B131E00220BDE8F0875B
:101340002046FFF747FF08BB0120FFF7E3FE2046DA
:10135000FFF740FFD8F81010064621F00401C8F846
:1013600010101CE04FF0FF303860AC6811E02046F0
:10137000FFF7E2FE5046FFF72DFFD8F810100600E9
:1013800021F00201C8F8101001D03C6007E004F51C
:101390008064D5E9020100EB8120A042E7D800215A
:1013A00089F818103046C9E71815002000200240BF
:1013B0000348016941F0800101610020704700008D
:1013C000002002402DE9F05F07461C4888460024B3
:1013D000017E15461E46012909D00121814601766C
:1013E0004CF2503A5046FFF7F5FE18B122E00220C9
:1013F000BDE8F09F012F02D0022F00D00427D34672
:10140000DFF83CA0220128463146FEF7D7FE81B224
:1014100008EB4400FFF7A2FE5846FFF7DBFEDAF8C0
:10142000102022F00102CAF8102018B9641CE4B29E
:10143000BC42E7D3002289F81820D9E7181500200C
:1014400000200240064900200A69120607D5054A15
:101450004A60054A4A600969090600D501207047BB
:101460000020024023016745AB89EFCD70B5154CD4
:1014700000222068017801291AD0022920D14907C9
:101480004B6A4A62418800EB4105491C4180AB80B0
:101490004188B1F5C87F13D902700B4800F06AFD8E
:1014A000A268002A0CD02168BDE8704001201047D6
:1014B000022101704280BDE87040034800F02EBD5B
:1014C00070BD000050020020C0430020044910B548
:1014D0000A68024202D00860FFF7C8FF10BD000092
:1014E000140401402DE9F84FDFF8B891002409F108
:1014F000040A0AF1040B23460F270BF1040EC9E07E
:101500000125A5402A40AA427DD1674ED1F804C0EA
:10151000ACEB0608B44532D014DCBCF1030F3AD072
:1015200009DCBCF1000F2AD0BCF1010F1CD0BCF1CA
:10153000020F31D11DE0BCF1110F17D0BCF1120F19
:101540002AD119E0B8F5881F19D006DCB8F5803F1C
:1015500015D0B8F5801F1FD111E0B8F5001F0ED0CF
:10156000B8F5041F18D10AE0CB6815E0CB681B1D45
:1015700012E0CB6808330FE0CB680C330CE08B68CB
:101580002BB1012B4FF0080303D0456104E0042385
:1015900002E0056100E00023FF2A01D8064601E0D1
:1015A00000F104064FEA840501D9A5F12005D6F81B
:1015B000008007FA05FC28EA0C0803FA05F548EA5A
:1015C0000508C6F800804D68ED0062D5374DAE695C
:1015D00046F00106AE61AD6924F0030605F0010591
:1015E0000095334D06EB050CDCF80850A607360FC6
:1015F00007FA06F825EA0805DFF8B880404503D168
:101600004FF0000817E044E0DFF8AC80404502D11D
:101610004FF001080FE0DFF8A480404502D14FF001
:10162000020808E0DFF89880404502D14FF0030837
:1016300001E04FF0040808FA06F848EA0508CCF87B
:1016400008804D68D9F80060ED034D4601D516437A
:1016500000E096432E604D68DAF80060AD03554611
:1016600001D5164300E096432E604D68DBF800601C
:10167000ED025D4601D5164300E096432E604D68AD
:10168000DEF80060AD02754601D5164300E09643D2
:101690002E60641C0D682A46E5407FF431AFBDE83A
:1016A000F88F0000000401400000111000100240FB
:1016B0000000014000080140000C01400010014002
:1016C000001401408068084000D001207047C268C3
:1016D00021EA02030A4043EA0241016170470AB16C
:1016E000016170470904FBE701488068704700000A
:1016F000A000002070B5040011D021684CF6CC4049
:101700000860216845F255500860D4E90001416045
:101710002168A0688860FFF7E7FF05460DE001201B
:1017200070BD00BFFFF7E0FF401B272805D92068E8
:10173000C068800701D0032070BD2068C0688007A2
:10174000F0D121684AF6AA200860002070BD006828
:101750004AF6AA2101600020704700000248816813
:101760000278114481607047A0000020074810B53E
:10177000016841F010010160032000F095F800209D
:1017800000F006F800F03EF8002010BD00200240F6
:1017900000B5014687B00022192000F065F8192035
:1017A00000F054F81348816941F400618161806957
:1017B00005A900F400600690684600F01DF900F0ED
:1017C0004BF90D490D4AB0FBF1F10D48491E02607D
:1017D000416040F2E7320021C0E90321816000F05E
:1017E00047FB10B1012007B000BD054800F096FB93
:1017F000F9E700000010024040420F00002C0140B9
:10180000D01400200F4808B5816941F001018161C1
:10181000816901F001010091C16941F08051C1610C
:10182000C069002200F0805000900F21901E00F04F
:101830001BF80548416821F0E06141F0007141600A
:1018400008BD00000010024000000140002809DB34
:1018500000F01F02012191404009800000F1E020CA
:10186000C0F8001170470000F0B40E4B1B680C4626
:10187000C3F30223C3F10705042D00D90425191D64
:10188000072901D2002300E0DB1E012606FA05F13C
:10189000491E214099409E40761E16403143F0BCBF
:1018A00001F004BE0CED00E0064900F007020868F4
:1018B0004FF6FF03184040EA0220034A1043086035
:1018C000704700000CED00E00000FA052DE9F0473C
:1018D0000F46050061D0434E306800F00700B84263
:1018E00009D2306820F0070038433060306800F0DB
:1018F0000700B84251D128683B4C810712D54007F8
:1019000003D5606840F4E06060602878000703D584
:10191000606840F4605060606068A96820F0F00082
:10192000084360602878C00728D06868012810D074
:101930002168022810D0890700292EDA616821F079
:10194000030101436160FFF7CFFE804641F2883911
:101950000DE021688903EFE78901EDE7FFF7C4FE99
:10196000A0EB0801494502D90320BDE8F087606873
:10197000696800F00C00B0EB810FEFD1306800F027
:101980000700B8420BD9306820F0070038433060B8
:10199000306800F00700B84201D00120E5E7287860
:1019A000400705D56068E96820F4E060084360609E
:1019B0002878000706D56068296920F4605040EA5D
:1019C000C100606000F058F86168084AC1F3031173
:1019D000515CC8400649086006480068FFF7D8FE19
:1019E0000020C2E70020024000100240147C0008E2
:1019F000AC000020A40000200F2202600C4A5368B3
:101A000003F003034360536803F0F00383605368FB
:101A100003F4E063C36052684FF4E06303EAD20268
:101A200002610448006800F0070008607047000089
:101A3000001002400020024004480549006849683F
:101A4000044AC1F30221515CC8407047AC00002039
:101A500000100240247C00080448054900684968D9
:101A6000044AC1F3C221515CC8407047AC00002059
:101A700000100240247C000812A185B00FC98DE837
:101A80000F0014A0144A006804905168134801F034
:101A90000C03042B10D0082B0ED1C1F38343C903D0
:101AA0001DF803000AD5516804AAC1F34041515CF6
:101AB0000A4A5043B0FBF1F005B07047084948436B
:101AC000FAE7000002030405060708090A0B0C0DDB
:101AD0000E0F1010010200000010024000127A00E8
:101AE00000093D002DE9F84F040070D02078C04D6A
:101AF000C00749D06868C0F38100012807D0686832
:101B0000C0F38100022809D16868C00306D528689F
:101B1000800339D560680028E7D035E06068B0F50B
:101B2000803F0BD010B1B0F5A02F11D0286820F461
:101B300080302860286820F4802002E0286840F483
:101B400080302860606890B1FFF7CEFD06460AE05D
:101B5000286840F480202860F0E700BFFFF7C4FD4C
:101B6000801B642873D828688003F7D50CE0FFF742
:101B7000BBFD064605E000BFFFF7B6FD801B6428ED
:101B8000F0D828688003F7D420789A4E80074FF069
:101B900001094FF0000839D5686810F00C0F07D024
:101BA0006868C0F38100022809D16868C00306D4C0
:101BB0002868800714D52069012808D110E0206921
:101BC000B0B1C6F80090FFF78FFD074605E00AE1C7
:101BD000FFF78AFDC01B0228C4D828688007F7D504
:101BE0002868616920F0F80040EAC10028600DE033
:101BF000C6F80080FFF778FD074604E0FFF774FDA4
:101C0000C01B022823D828688007F7D42078000753
:101C10002CD57948A169D9B1C0F80090FFF764FDCF
:101C2000074604E0FFF760FDC01B02280FD8686A72
:101C30008007F7D571484FF4FA510068B0FBF1F016
:101C4000009000BF0098411E0091FAD20EE080E0A3
:101C5000C0F80080FFF748FD074604E0FFF744FDA9
:101C6000C01B022875D8686A8007F7D4207840071F
:101C700060D5E8690027C00008D4E86940F08050CA
:101C8000E861E869012700F0805000905C48016835
:101C9000C90513D40168834641F480710160FFF7E0
:101CA00023FD824606E000BFFFF71EFDA0EB0A0001
:101CB00064284ED8DBF80000C005F5D5E06801289F
:101CC0000AD008B1052813D0286A20F00100286244
:101CD000286A20F0040002E0286A40F0010028622F
:101CE000E06841F2883B98B1FFF7FEFC82460BE0CA
:101CF000286A40F004002862EEE700BFFFF7F4FC1A
:101D0000A0EB0A0159455AD8286A8007F6D50CE09D
:101D1000FFF7EAFC824605E0FFF7E6FCA0EB0A01CC
:101D200059454CD8286A8007F6D41FB1E86920F0DD
:101D30008050E861E06988B36968C1F381010229D4
:101D400044D00228C6F8608004D0FFF7CDFC0446DA
:101D500038E034E0FFF7C8FC074604E0FFF7C4FCB6
:101D6000C01B02282BD828688001F7D4206AB0F560
:101D7000803F05D16868A16820F40030084368609E
:101D8000D4E908010843696821F4741108436860C4
:101D9000C6F86090FFF7A8FC044606E025E000BF07
:101DA000FFF7A2FC001B022809D828688001F7D59C
:101DB0001BE000BFFFF798FC001B022802D903209C
:101DC000BDE8F88F28688001F4D40EE00128F7D030
:101DD0006868226A00F48031914204D1616A00F49B
:101DE0007010884201D00120EAE70020E8E70000F7
:101DF000001002400000424280044242AC00002039
:101E0000007000407047704770B590F83C20012A80
:101E100026D0012480F83C40022280F83D2003684F
:101E20005A689D6822F070060A6832435A600D4B6A
:101E300002689A4208D0B2F1804F05D00A4B9A420C
:101E400002D00A4B9A4204D1496825F08003194315
:101E5000916080F83D40002180F83C10084670BD3C
:101E6000022070BD002C014000040040000800402A
:101E700010B5040003D094F83D0010B107E0012034
:101E800010BD002084F83C00204600F01FF802201E
:101E900084F83D00211D206801F078F8012084F8C5
:101EA000460084F83E0084F83F0084F8400084F83F
:101EB000410084F8420084F8430084F8440084F828
:101EC000450084F83D00002010BD000008B5016801
:101ED0001048B1F1804F0BD00F4A914207D1C16930
:101EE00041F00201C161C06900F00200009008BD2C
:101EF000C16941F00101C161C069002200F0010027
:101F0000009011461C20FFF7AFFCBDE808401C20E4
:101F1000FFF79CBC001002400004004090F83D1008
:101F2000012901D001207047022180F83D1001688D
:101F3000CA6842F00102CA6000680B49884208D0B2
:101F4000B0F1804F05D00949884202D00849884243
:101F500004D1816801F00701062903D0016841F02E
:101F60000101016000207047002C01400004004086
:101F7000000800400168CA6822F00102CA600168D6
:101F80000A6A41F211131A4207D10A6A9B101A42D7
:101F900003D10A6822F001020A60012180F83D1095
:101FA0000020704770B5044690F83C00012817D017
:101FB000012584F83C50022084F83D0020688268A6
:101FC00022F0770222F47F4282600868502830D0E5
:101FD0000DDC20284DD005DC98B310283BD148E01B
:101FE000022070BD302844D0402834D139E0602828
:101FF00028D0702806D0B0F5805F2CD0B0F5005FF7
:1020000029D10AE0CB68D1E90121206801F001F86B
:102010002068816841F0770109E0CB68D1E90121AE
:10202000206800F0F6FF2068816841F480418160FB
:1020300011E0CA684968206801F0A0F850212068C2
:1020400007E016E0CA684968206801F0A8F8602136
:10205000206800F0E8FF84F83D50002084F83C0040
:1020600070BDCA684968206801F088F8402120687E
:10207000EFE7226801461046EBE7704770B504466B
:10208000006801694FF00005C943890715D4C1688C
:10209000C943890711D4E91E016101202077206816
:1020A00080698007204602D0FFF7E7FF04E000F0D8
:1020B000BFF8204600F04EF9257720680169C94332
:1020C000490717D4C168C943490713D46FF0040105
:1020D0000161022020772068806910F4407F20464B
:1020E00002D0FFF7CAFF04E000F0A2F8204600F09B
:1020F00031F9257720680169C943090716D4C168F9
:10210000C943090712D46FF0080101610420207748
:102110002068C0698007204602D0FFF7AEFF04E0C8
:1021200000F086F8204600F015F92577206801694F
:10213000C943C90617D4C168C943C90613D46FF08F
:1021400010010161082020772068C06910F4407FE9
:10215000204602D0FFF791FF04E000F069F8204626
:1021600000F0F8F8257720680169C943C90708D14C
:10217000C168C943C90704D1891E0161204600F026
:1021800039F920680169C943090609D4C168C943FE
:10219000090605D46FF0800101612046FFF732FE89
:1021A00020680169C943490609D4C168C943490681
:1021B00005D46FF040010161204600F03DF9206830
:1021C0000169C94389060BD4C168C943890607D48C
:1021D0006FF0200101612046BDE87040FFF713BE9B
:1021E00070BD000000B585B0002100910191029101
:1021F000039100680B49884211D10B48816941F075
:10220000040181618069694600F004000490802027
:1022100000900220019003900448FFF763F905B095
:1022200000BD000000040040001002400008014012
:10223000704770B5044690F83C000D4601280AD05E
:10224000012084F83C0042B1042A18D0082A2AD080
:102250000C2A4DD139E0022070BD206800F0ECFE60
:102260002068816941F0080181612068816921F05D
:1022700004018161206881692A69114311E02068A5
:1022800000F002FF2068816941F4006181612068EB
:10229000816921F480618161206881692A6941EA4C
:1022A0000221816124E0206800F01AFF2068C169E2
:1022B00041F00801C1612068C16921F00401C161D8
:1022C0002068C1692A69114311E0206800F034FFD9
:1022D0002068C16941F40061C1612068C16921F4CD
:1022E0008061C1612068C1692A6941EA0221C16136
:1022F000002084F83C0070BD10B5040003D094F8B1
:102300003D0010B107E0012010BD002084F83C0022
:10231000204600F01EF8022084F83D00211D2068B0
:1023200000F034FE012084F8460084F83E0084F872
:102330003F0084F8400084F8410084F8420084F8AB
:10234000430084F8440084F8450084F83D000020F0
:1023500010BD70477047000010B50446022249B115
:1023600004290ED0082913D094F84100012816D072
:10237000012010BD94F83E000128F9D184F83E20D8
:102380000FE094F83F000128F2D184F83F2008E0E4
:1023900094F840000128EBD184F8402001E084F853
:1023A00041200122206800F027FE0F492068884262
:1023B00003D1426C42F4004242642068884208D053
:1023C000B0F1804F05D00949884202D008498842BF
:1023D00004D1816801F00701062903D0016841F0AA
:1023E00001010160002010BD002C014000040040EC
:1023F0000008004010B5044600680D49884201D12C
:10240000FFF7ACF92068B0F1804F10D12046FFF7FC
:10241000B1FD0848002201680A7082681AB1488834
:1024200008B1002000E00120BDE81040104710BDB9
:10243000002C014050020020704770477047000098
:1024400010B504460068C16821F49071C16020682D
:10245000416921F001014161206B012804D120680C
:10246000C16821F01001C160216848694FF0200265
:1024700043064FF000000FD54B6923F040034B613A
:10248000A16B49B109484863A06BFEF7F1FE50B15A
:10249000A06B416B884706E0E08584F83E2020630E
:1024A0002046FFF7CBFF002010BD0000D33100080D
:1024B00070470000F8B5026804461068D168536997
:1024C00010F00F0F4FF0000554D003F0010601F497
:1024D000907737435FD0C20705D0CA0503D5226C79
:1024E00042F001022264420705D5DA0703D0226CCC
:1024F00042F002022264820705D5DA0703D0226C7B
:1025000042F004022264020707D501F020023243A0
:1025100003D0226C42F008022264226C002A35D0DB
:10252000800604D5880602D5204600F075FE206896
:102530004069216CC0F3801001F00801014320467E
:1025400025D000F051FE2068416949061BD541693C
:1025500021F040014161A06BA8B158494163A06BD3
:10256000FEF786FE002811D0A06B416B01B0BDE8DC
:10257000F040084783060ED58B060CD52046BDE8F3
:10258000F84000F049BE2046FFF792FFF8BDFFF784
:102590008FFF2564F8BD266B2023012E52D1C6067D
:1025A00050D5CE064ED51068506800905069400650
:1025B0002AD5A16B086840680004000CEAD0A68DFB
:1025C0008642E7D9E0858869202818D0D06820F4B1
:1025D0008070D0602068416921F00101416120686C
:1025E000416921F04001416184F83E302563206853
:1025F000C16821F01001C160A06BFEF715FEA08D2F
:10260000E18D401A81B219E0A08DE18D401A81B2AE
:10261000E08D0028BED00029BCD0D06820F4907096
:10262000D0602068426922F00102426184F83E30A5
:1026300025632068C26822F01002C2602046FFF7BE
:10264000FCFEF8BD05062BD50D0629D594F83D00F6
:102650002128F6D1A068B0F5805F01D12069B0B122
:10266000206A411C2162216800784860E08C401E8D
:102670000004000CE084E4D12068C16821F08001EE
:10268000C1602068C16841F04001C160F8BD206AA6
:102690000088C0F308005060206A801C2062E5E7D3
:1026A0004006F3D54806F1D5D168204621F0400117
:1026B000D16084F83D3000F05DF9F8BDC331000809
:1026C00070B5040004D094F83D00002510B106E078
:1026D000012070BD84F83C50204600F023F82420EF
:1026E00084F83D002068C16821F40051C160204693
:1026F00000F0EEFD2068016921F49041016120683D
:10270000416921F02A0141612068C16841F400510A
:10271000C1602564202084F83D0084F83E0000203C
:1027200070BD0000F0B585B00024009401940294BF
:1027300003940368424F022042490322424D46025D
:10274000BB4225D18B6943F480438B618B6903F4D1
:10275000804304938B6943F004038B61896903927E
:1027600001F0040104910102CDE9001069462846F8
:10277000FEF7B8FECDE90064694628460294FEF7EC
:10278000B1FE002205212520FFF76EF8252028E064
:102790002E4FBB4229D1CB6943F40033CB61CB69C7
:1027A00003F4003304938B6943F004038B6189695C
:1027B000039201F0040104910421CDE9001069465F
:1027C0002846FEF78FFE0820CDE90004694628461A
:1027D0000294FEF787FE002205212620FFF744F829
:1027E0002620FFF733F805B0F0BD194DAB42FAD102
:1027F000CB6943F48023CB61CB6903F4802304933A
:102800008B6943F008038B618969124D01F008015F
:10281000CDE90321CDE9006069462846FEF762FE56
:10282000E814CDE90004694628460294FEF75AFEF2
:10283000002205212720FFF717F82720D1E7000005
:1028400000380140001002400008014000440040F0
:1028500000480040000C014090F83E30202B0ED183
:1028600059B152B190F83C30012B08D0012380F8C7
:102870003C300023036300F087BD01207047022035
:10288000704770472DE9F843044690F83D001F4615
:1028900016460D4620284CD1C5B1BEB194F83C0077
:1028A000012846D0012084F83C004FF00008C4F80D
:1028B0004080212084F83D00FEF716FFA684814663
:1028C000E684A068B0F5805F03D004E00120BDE895
:1028D000F883206928B12E465FF0000584F83C801B
:1028E0000EE00026FAE78021204600F068FDA0B93E
:1028F000AEB116F8010B21684860E08C401EE08400
:10290000E08C4B464FF0000200970028EBD14FF0CF
:102910004001204600F053FD30B10320D7E735F8E1
:10292000020BC0F30800E6E7202084F83D000020F9
:10293000CDE70220CBE790F83D30202B18D1A9B18C
:10294000A2B190F83C30012B12D001628284C28483
:1029500000210164212280F83D2080F83C100068AD
:10296000C16841F08001C1600020704701207047BC
:10297000022070477047FEE72DE9F05F0026DFF880
:10298000F0B0DFF8F0900C4635464FF4807898B1FF
:102990009BF801105846012908D00178012908D078
:1029A0008178012962D18BF8025058E08BF80150F0
:1029B00055E08BF8005052E040F222312E48FDF7EE
:1029C0007AFCDFF8ACA00127AAF1010ADAF80800C6
:1029D00001680F700068618841802748618820F88D
:1029E000021B61884A00211DFDF74CFC6088211DF7
:1029F0004200DAF808000068001DFDF743FC9BF870
:102A0000002058460AF10401012A06D08278012AE2
:102A10000CD04278012A13D01BE08BF800500F70C5
:102A2000012241464846FEF75AFE12E08BF802505A
:102A30008F70012241464846FEF751FE022608E00B
:102A40008BF801504F70012241464846FEF747FE81
:102A50000126324640F29111074804F071FE4146CA
:102A60004846BDE8F05F0122FEF739BEBDE8F09FA1
:102A70002101002000080140C836002010B504469E
:102A800000224FF480710448FEF729FE034801211B
:102A900002681170846010BD0008014050020020DF
:102AA0002DE9F04705000FD0287868B1688803F059
:102AB000FBF92B4C01006068816008D0002646704D
:102AC0006988818031460DE00220BDE8F08703204F
:102AD000FBE700BF05EB41028368928823F81120D1
:102AE000491C89B282888A42F4D8DFF878A04FF472
:102AF0008079002249465046FEF7F1FD04F0C6FCFD
:102B00000025194F4FF4ED7813E0417811B1396881
:102B10008E6302E03A68C2F83880806830F81500A9
:102B200001F0BAFF60684178C1B100216D1C4170AD
:102B3000ADB260688188A942E7D8806818B102F018
:102B4000A5FD606886603868866301224946504664
:102B5000FEF7C5FD04F0BAFC0020B6E70121E5E769
:102B6000500200200008014008440020084810B529
:102B7000006800240470448001F080FF00F00CF82D
:102B800000F0B2F800F0E4F802480068846310BD79
:102B9000500200200844002070B586B0234800246D
:102BA0000294816941F010018161816901F0100195
:102BB0000491816941F020018161816901F0200166
:102BC0000491816941F004018161816901F004018E
:102BD0000491816941F00801816180694FF4807539
:102BE00000F0080004900120CDE900500320104EB1
:102BF000039069463046FEF775FC012229463046AF
:102C0000FEF76DFD202000900A48CDE901046946D9
:102C10003046FEF767FC002211461720FEF724FE1F
:102C20001720FEF713FE06B070BD00000010024032
:102C3000000801400000311070B5264886B0816957
:102C400041F020018161816901F0200104918169D5
:102C500041F004018161816901F0040104918169FD
:102C600041F008018161816901F0080104918169E5
:102C700041F0100181618069032400F0100004908C
:102C800000264FF40050012503948DE86100694649
:102C90001148FEF727FC00950394CDE901560F4D2E
:102CA00069462846FEF71EFC002201212846FEF751
:102CB00016FD03F0E7FD0B480949C0E9001440F692
:102CC000FF718160FEF716FD0648FEF740FD06B075
:102CD00070BD0000001002400010014000080140DB
:102CE00000300040B408002010B586B0002417481A
:102CF000009401940294039404944FF0804105944D
:102D000001604721C0E901144CF24F31C0E90314BE
:102D100080218161FFF7ACF808B1FEF7F8F94FF4B4
:102D20008050009069460948FFF73CF908B1FEF76A
:102D3000EEF9049404A905480594FFF765F8002806
:102D400001D0FEF7E4F906B010BD0000C04300203A
:102D500010B58EB000240794089409940A940B943B
:102D60001C2168460C94FDF7A6FA21481F49C0E9CA
:102D7000001440F26A71C0E9024104618461FFF706
:102D800077F808B1FEF7C3F94FF48050079007A910
:102D90001748FFF707F908B1FEF7B9F91448FFF72C
:102DA000ABFA08B1FEF7B3F90B940BA910480C94D9
:102DB000FFF72AF808B1FEF7AAF9602000904FF457
:102DC000ED70CDE901040422694609480494FFF737
:102DD00030FA08B1FEF79BF90548FFF703FA042122
:102DE0000348FFF7B9FA0EB010BD00000004004020
:102DF0000844002010B5114C0F480C2120604FF4FE
:102E0000E13060600020A060E060C4E90401A061DE
:102E1000E0612046FFF754FC08B172B6FEE7206877
:102E2000C16841F01001C160BDE810404FF47A72F2
:102E300003490248FFF710BD00380140E8070020B1
:102E4000410E002010B5114C0F480C2120604FF4AA
:102E5000E13060600020A060E060C4E90401A0618E
:102E6000E0612046FFF72CFC08B172B6FEE720684F
:102E7000C16841F01001C160BDE810404FF4967286
:102E800003490248FFF7E8BC004400402C0800203A
:102E90002D12002010B5114C0F480C2120604FF46A
:102EA000E13060600020A060E060C4E90401A0613E
:102EB000E0612046FFF704FC08B172B6FEE7206827
:102EC000C16841F01001C160BDE810404FF4967236
:102ED00003490248FFF7C0BC0048004070080020CA
:102EE0005C130020FEE7FEE710B5502080F3118848
:102EF000BFF34F8FBFF36F8F04F0C6FD18B10449C5
:102F00004FF080500860002080F3118810BD000051
:102F100004ED00E030B58FB028216846FDF7CBF90D
:102F200014210AA8FDF7C7F901210804CDE9001012
:102F30000024029402250491CDE907504FF4E010DB
:102F400009906846FEF7CEFD08B172B6FEE70F2085
:102F5000CDE90A054FF48060CDE90C4002210AA8B2
:102F60000E94FEF7B3FC002801D072B6FEE70FB056
:102F700030BD70470148FFF781B80000D014002031
:102F80000148FFF77BB80000C0430020F0B502689D
:102F9000164B174C174D4FF08047984205D0B8425A
:102FA00003D0A04201D0A84203D122F070064A68A3
:102FB0003243984205D0B84203D0A04201D0A84283
:102FC00003D122F44074CA6822434C6922F0800283
:102FD000224302608A68C2620A688262984201D112
:102FE0000969016301214161F0BD0000002C01402D
:102FF000000400400008004010B501F01F0301214B
:10300000046A99408C430462016A9A401143016248
:1030100010BD10B5846842EA032224F47F440A43B9
:103020002243826010BD826822F070020A4342F09F
:10303000070181607047000030B5026A22F001028A
:103040000262026A4368846924F073050C682C43A9
:1030500022F002058A682A430A4DA8420BD122F0C9
:103060000805CA6823F440732A434D6922F004021C
:103070001D438B692B43436084614968416302624D
:1030800030BD0000002C014030B5026A22F0100271
:103090000262026A436884690D6824F4E64444EAE3
:1030A00005248D6822F0200242EA05120B4DA84249
:1030B0000ED1CD6822F0800242EA05124D6923F458
:1030C000406343EA85038D6922F0400243EA8503A9
:1030D0004360846149688163026230BD002C014015
:1030E00030B5026A22F480720262036A4268C469DF
:1030F00023F4007324F073050C682C438D6843EAB5
:1031000005230C4DA8420ED1CD6823F4006343EA99
:1031100005234D6922F4405242EA05128D6923F4D9
:10312000806342EA05124260C4614968C163036278
:1031300030BD0000002C014030B5026A22F48052FC
:103140000262046A4268C3690D6823F4E64343EAF5
:1031500005238D6824F4005444EA0534064DA84242
:1031600004D14D6922F4804242EA85124260C36173
:1031700049680164046230BD002C014010B5036A47
:10318000046A24F001040462846924F0F00444EA2F
:10319000021423F00A020A438461026210BD10B5D2
:1031A000036A23F0100303628369046A23F4704303
:1031B00043EA023224F0A00343EA01118261016272
:1031C00010BD10B5406A0021C185C184FFF770F9B8
:1031D00010BD10B5406A0021C185202280F83E2034
:1031E0000163FFF72BF910BD0168CA6822F49072E1
:1031F000CA6001684A6922F001024A61016B012933
:1032000004D10168CA6822F01002CA60202180F847
:103210003E1000210163704708B590F83E10222946
:1032200001D0022008BD82684FF480539A4201D138
:10323000016921B1816A9A421BD04AB10AE0026851
:10324000816A5268C2F308020A80816A891C08E018
:10325000026972B10268526802F07F020A70816AE4
:10326000491C8162C18D491E0904090CC18503D026
:1032700019E002685268F1E70168CA6822F020028A
:10328000CA600168CA6822F48072CA6001684A692B
:1032900022F001024A61202180F83E10016B0129D1
:1032A00003D0FFF7EEFA002008BD0021016301689A
:1032B000CA6822F01002CA6001680A68D20602D504
:1032C0000A6849680091818DFFF7B7F8EBE70000C5
:1032D00070B5044600680169E26821F44051114369
:1032E00001612169A0680843616908432168CA68CF
:1032F00041F20C639A430243CA6020684169A269A3
:1033000021F44071114341611E492068884202D175
:10331000FEF7A2FB01E0FEF78FFB00EBC00101EB23
:103320000012606864218000B2FBF0F3B3FBF1F39C
:103330006FF018067343B2FBF0F5B2FBF0F605EB45
:103340008305322303EB0515B5FBF1F5B6FBF1F66A
:1033500005F0F00505EB0615B2FBF0F6B2FBF0F058
:10336000B0FBF1F06FF01802504306EB800003EB66
:103370000010B0FBF1F0216800F00F0028448860D5
:1033800070BD00000038014081628285C285002145
:103390000164222280F83E2080F83C100168CA684F
:1033A00042F48072CA6001684A6942F001024A61CF
:1033B0000068C16841F02001C160002070472DE91C
:1033C000F041984617460E460446069D1DE0681CCF
:1033D0001BD02DB1FEF788F9A0EB0800A84214D944
:1033E0002068C16821F4D071C1602068416921F072
:1033F00001014161202084F83D0084F83E00002056
:1034000084F83C000320BDE8F0812068006836EABB
:10341000000004D00020B842D9D00020F3E70120FA
:10342000F9E7000010B502F059F9BDE81040014875
:10343000FFF740B8E807002010B502F0E5F9BDE855
:1034400010400148FFF736B82C08002010B502F0F4
:1034500099FABDE810400148FFF72CB87008002029
:10346000FEE700000FB4054B10B503A9044A02980B
:1034700000F006F910BC5DF814FB0000755600085A
:103480005C0200200FB4084B10B504A902AA0398EF
:1034900000F0F6F8044602A9002000F088FC20465F
:1034A00010BC5DF814FB0000AF3D00080907090ED1
:1034B000002804DB00F1E02080F80014704700F0E1
:1034C0000F0000F1E02080F8141D7047004870479D
:1034D0006802002001480068704700006802002070
:1034E00002E008C8121F08C1002AFAD170477047CD
:1034F000002001E001C1121F002AFBD1704700002B
:103500000149086070470000680200202DE9FF5F54
:10351000DDE90220010DDDF838B0024318D044F691
:103520001050A1F2FF3141430D140F98012820D013
:10353000A5EB0B00401C5FEA000A4FF00004474E69
:10354000DFF81C91A046504616D5CAF1000728E0C6
:103550000F98012443A2012808D0002100980F9B56
:10356000C0E90021C0E90243BDE8FF9F6FEA0B01FB
:10357000F4E7CBF10000DEE7074612E0F80707D0DA
:103580002246334640464946FCF734FF804689468A
:103590002246334610461946FCF72CFF04460E46D9
:1035A0007F10002FEAD1DDE90201BAF1000F424697
:1035B0004B4602DAFCF71EFF01E0FDF734FA044641
:1035C0000E460022284BFDF7B5FA03D84FF0FF3026
:1035D000014607E00022254B20463146FDF77CF9E5
:1035E000FDF790FA102409E0002C0ADB0A220023E0
:1035F000FCF7E1FF019B30321A55641E50EA0102CC
:10360000F2D1641C019AC4F1110314440F9A012AE7
:1036100003D0012208430DD10AE0084304D0002062
:103620004FF0110B0F9080E7A3EB0B056D1E0DE023
:103630005B4504DD4FF0000205F1010504E003DA0B
:103640004FF00002A5F10105002AECD000980F9977
:10365000C0E90231C0E9004586E7000000002440CF
:103660000000F03F300000000000F0430000E03FA9
:1036700030380A2801D2012070470020704700002E
:103680002DE9FF4F95B09B468946064600250FE27F
:10369000252877D100242746F84A0121059400E027
:1036A000044316F8013F203B01FA03F01042F7D122
:1036B00030782A2811D06FF02F033078A0F1300233
:1036C000092A16D8059A44F0020402EB820203EBA1
:1036D00042021044761C0590EFE759F8042B05923E
:1036E000002A03DA504244F40054059044F00204E6
:1036F000761C30782E2816D116F8010F44F00404F9
:103700002A280DD06FF02F023078A0F13003092B5A
:1037100009D807EB870302EB4303C718761CF3E7CE
:1037200059F8047B761C30786C280FD006DC4C28C6
:1037300017D068280DD06A2814D104E0742810D05E
:103740007A280FD10DE044F400140AE044F4801408
:1037500001E044F440147278824202D104F58014EE
:10376000761C761C307866280BD013DC582877D06E
:1037700009DC002875D04528F6D04628F4D0472823
:103780001AD19DE118E0632835D0642879D06528E6
:1037900012D195E1702873D008DC6728F1D0692830
:1037A0006FD06E280DD06F2806D1B5E073282CD0CD
:1037B000752875D0782874D05A46179990476D1C93
:1037C00075E1C4F30250022809D003280DD0D9F8BE
:1037D000001004280DD00D6009F1040967E1D9F843
:1037E0000010EA17C1E90052F6E7D9F800100D8081
:1037F000F2E70D70F0E719F8041B8DF800100020B7
:103800008DF80100EA46012003E059F804AB4FF0BF
:10381000FF3061074FF0000102D40DE008F1010113
:103820008846B9420FDA8045F8DB1AF808100029FB
:10383000F4D108E008F1010188468142FADB1AF868
:1038400008100029F6D105985B46A0EB0807214631
:103850003846179A00F094FA284400EB080507E070
:103860004DE029E10DE01AF8010B5A4617999047EF
:10387000B8F10108F7D25B4621463846179A13E1A2
:1038800042E00A220092C4F302524FF0000A022AD8
:1038900008D059F804CB032A4FEAEC710AD00DE0A6
:1038A00029E02AE009F1070121F00702F2E802C14C
:1038B000914609E00FFA8CFC4FEAEC71042A03D11F
:1038C0004FFA8CFC4FEAEC71002907DA0A46002116
:1038D000DCF1000C61EB02012D2202E0220504D58F
:1038E0002B228DF80420012203E0E20701D02022E0
:1038F000F7E7904659E00A2102E010220DE010217E
:103900004FF0000A00910BE010224FF0000A44F043
:1039100004040827009203E008224FF0000A0092F6
:10392000C4F30252022A05D059F804CB0021032A1D
:1039300008D009E009F1070121F00702F2E802C10D
:10394000914605E01FFA8CFC042A01D10CF0FF0C13
:103950004FF00008220728D5702806D0009B83F07E
:10396000100353EA0A0305D00EE040228DF804202C
:10397000012208E05CEA010206D030228DF8042022
:103980008DF8050002229046009B83F0080353EA5D
:103990000A030AD15CEA010201D1620705D530228F
:1039A0008DF804204FF001087F1E582804D034A061
:1039B00003900EA802900DE036A0F9E7534660464A
:1039C000009AFCF7F8FD84460398825C0298401E3A
:1039D000029002705CEA0100F0D1029806A9081A70
:1039E00000F1200A600702D524F4803400E00127AA
:1039F000574502DDA7EB0A0000E0002000EB0A01BA
:103A0000009005984144401A0590E00306D45B46B7
:103A10002146179A059800F0B3F90544002706E0FF
:103A200001A85A46C05D179990476D1C7F1C4745F9
:103A3000F6DBE0030CD55B462146179A059800F0AB
:103A40009FF9054404E030205A46179990476D1CB1
:103A50000099481E00900029F5DC08E002980299C0
:103A60005A460078491C0291179990476D1CBAF18B
:103A70000001AAF1010AF1DC65E10000092801005A
:103A800030313233343536373839616263646566D4
:103A90000000000030313233343536373839414296
:103AA000434445460000000000F058F90544761CE8
:103AB000307800287FF4ECAD19B02846BDE8F08FCF
:103AC000620700D4062709F1070222F0070CFCE880
:103AD0000223E14603F000485FEA080C02D00FF22F
:103AE000702C0DE05FEA045C02D50FF2682C07E051
:103AF0005FEAC47C02D00FF2602C01E0AFF2700CE0
:103B00004FF0FF3823F00043CDF850C065280CD0AB
:103B100006DC452809D046281DD047283DD13DE088
:103B2000662818D067287ED138E00021112F01DBEC
:103B3000112000E0781CCDE9000106A90EA8FFF7CE
:103B4000E5FCDDE90F010E9A03910021009207F1D7
:103B5000010A04914DE04FF000400097CDE90110BB
:103B600006A90EA8FFF7D2FCDDE90F0203920E9B17
:103B700011990022DDF80CA00093049211B9791C70
:103B800000EB010AB7EB0A0004D4C0F1FF3007F1E3
:103B9000010A0490AAEB0700019044E0012F00DA2B
:103BA00001270021112F01DD112000E03846CDE969
:103BB000000106A90EA8FFF7A9FCDDE90F010E9A86
:103BC0000391002104910092BA4621070CD4039975
:103BD000514500DA8A46BAF1010F05DD009AAAF1D3
:103BE0000101515C302908D0B84202DA10F1040F0B
:103BF00006DA0121CDE9011015E0AAF10101E9E79A
:103C0000002805DC049901440491AAEB000102E0BC
:103C1000411C514500DD8A460499401A401C019020
:103C20004FF000400290200704D40198504501DB7A
:103C3000CDF8048000208DF84F0002980DF14F0759
:103C4000B0F1004F25D02B200E9002984FF00208C3
:103C500000280CDA404202902D200E9007E00A2145
:103C60000298FCF792FC3031029007F8011DB8F180
:103C70000001A8F10108F2DC02980028EFD1791EBA
:103C80000E980870307800F0200040F0450007F8EA
:103C9000020D12A8C01B00F107081498007800B1AB
:103CA000012000EB0A01019801EBE0710598414405
:103CB000401A401E0590E00306D45B462146179A41
:103CC000059800F05DF805441498007818B15A463C
:103CD000179990476D1CE00324D55B462146179A3F
:103CE000059800F04DF805441CE00498002807DB17
:103CF000DDE90301884203DD0098405C179901E08B
:103D0000179930205A469047049805F10105401C48
:103D100004900198401E019004D12E205A46179914
:103D200090476D1CBAF10001AAF1010ADDDC05E043
:103D300017F8010B5A46179990476D1CB8F100010E
:103D4000A8F10108F4DC5B462146179A0598ABE61A
:103D50002D0000002B000000200000002DE9F041A4
:103D6000044600251E461746880404D405E039465B
:103D70002020B0476D1C641EF9D52846BDE8F081AF
:103D80002DE9F041044600251E469046C80301D5A2
:103D9000302700E02027880404D505E04146384656
:103DA000B0476D1C641EF9D52846BDE8F0810A684D
:103DB000531C0B601070704730B583B00446FFF79A
:103DC00089FB05460020CDE90000024621466846F1
:103DD000FCF783FC2846FFF793FBDDE9000103B005
:103DE00030BD00002DE9F04F8BB014216846FCF780
:103DF00062FA02F011FC08B1FE490860FE4C4BF279
:103E0000101B621C0221584603F080FD03F0B6FD32
:103E1000FA4E707B38B3FA4D35F8150FFCF765FB99
:103E2000F84F3946FCF7A8FAFCF79CFB02460B4614
:103E3000F5A16846FFF726FB6A460421584603F0C1
:103E400065FD6888FCF751FB3946FCF795FAFCF7ED
:103E500089FB02460B46ECA16846FFF713FB6A4656
:103E60000521584608E0EAA204215D46584603F0C1
:103E70004DFDE7A20521284603F048FD03F084FA32
:103E8000307DE54AE54F0025DFF894834BF2231A95
:103E9000012806D0707D012814D0F07D01281CD0A7
:103EA0002CE04BF21110014602F086FCC8F8040029
:103EB00020B303F075F800223946504603F07CFC2D
:103EC00035751BE003F0DEFC03F096FC002239465A
:103ED000504603F071FC757510E04BF2111001466D
:103EE00002F06AFCC8F8040038B103F059F8CA4976
:103EF0000022891C504603F05FFCF575B07FC94F66
:103F000001280DD103223946504603F055FC6420A8
:103F100003F030FB03223946504603F04DFCB577E1
:103F2000307F01280DD103223946504603F044FC6E
:103F3000642003F01FFB03223946504603F03CFC8B
:103F40003577707F01280DD103223946504603F0A2
:103F500033FC642003F00EFB03223946504603F085
:103F60002BFC7577B07AB14601284CD1AE480026BB
:103F7000374645704BF2111089F80C50AB4A014698
:103F800002F01AFCC8F80400059048B1A8481921AD
:103F90000646FCF790F930460599FCF7D7F901265B
:103FA000A24A4BF21110521C014602F005FCC8F85F
:103FB0000400059050B19E48192119300746FCF7BE
:103FC0007AF938460599FCF7C1F901273E421AD023
:103FD000954801260146067089F80B6089F80A5059
:103FE00040F232229348FCF74DF992481B22924945
:103FF0000670457000F23220FCF744F940F24D2182
:104000008C4801F0C9FA884E884F7078FF1C01284F
:1040100008D199F80B00012804D1012239465046F5
:1040200003F0CAFB7548007B012808D17348C07AA9
:10403000012804D102223946504603F0BDFB4BF261
:10404000231772780321384603F0B6FB6C4E062125
:10405000384616F8592F03F0AFFB7078072100F0AF
:104060000102384603F0A8FB70780821C0F3400233
:10407000384603F0A1FB70780921C0F3C00238462E
:1040800003F09AFB70780A21C0F30012384603F05F
:1040900093FB70780B21C209384603F08DFB7078D2
:1040A0000D21C0F34012384603F086FB70780C21D6
:1040B000C0F38012384603F07FFB70780E21C0F306
:1040C00080023846593E03F077FBDFF854B10027F1
:1040D000B2460BF1A20B7B1C0AF1010257A1684604
:1040E000FFF7D0F907EB87090BEB89066A463168C1
:1040F0004BF2101003F00AFCD14499F83F00C0B114
:104100004BF2101971684FA2484603F0FFFBB168EB
:104110004CA2484603F0FAFB7F1CFFB2042FDAD30F
:104120004548407D06283DD2DFE800F02C2E303790
:10413000FDFCB9F83B00FCF7D8F93249FCF71CF953
:10414000FCF710FA02460B462FA16846FFF79AF9D2
:1041500071686A464BF2101003F0D8FBB9F83D00C5
:10416000FCF7C3F92749FCF707F9FCF7FBF902460E
:104170000B4625A16846FFF785F9B1686A464BF200
:104180001010C7E731A002E033A107E035A0C8F85E
:104190000800012088F8010004E035A1C8F80810E3
:1041A00088F801501E480F2142784BF2231003F08B
:1041B00003FB1B484BF2101710218268384603F0AE
:1041C000A5FB0F4E56F8210F02F05AFE02462BA116
:1041D0006846FFF757F96A461721384603F096FB01
:1041E000706802F04DFE024624A16846FFF74AF9C6
:1041F0006A4645E0180000206C0200204A000020BA
:10420000110300200000204125322E3166000000FD
:104210006E756C6C00000000020014000C000D00B4
:104220003C01002005000E00393B00200200100078
:10423000713C0020E80B00208200002025732D2512
:1042400030326400CEB4B0B2D7B00000B1A3D6D63D
:10425000D4CBD0D000000000B1A3D6D6CDA3D6B920
:1042600000000000B9B2D3FDD4CBD0D000000000D4
:10427000B9B2D3FDCDA3D6B900000000257300006C
:104280001821384603F042FBD6F8120002F0F8FD80
:104290000246AFF218016846FFF7F4F86A461321A8
:1042A000384603F033FBD6F8160002F0E9FD02466B
:1042B000AFF238016846FFF7E5F86A461421384640
:1042C00003F024FBB06802F0DBFD0246AFF25401BC
:1042D0006846FFF7D7F86A461121384603F016FB07
:1042E000327BFEA16846FFF7CDF86A4612213846B8
:1042F00003F00CFBD6F80D0002F0C2FD0246AFF24F
:1043000084016846FFF7BEF86A461521384603F077
:10431000FDFA727CF1A16846FFF7B4F86A461621EF
:10432000384601E009E006E003F0F0FAED48407994
:10433000012804D097E1ECA029E7EEA12EE7F04890
:104340008178491C8170142105A8FBF7B4FFE54969
:104350000120C87434F8690FFCF7C7F8DFF8A4A38C
:1043600056465146FCF708F8FCF7FCF802460B46A7
:10437000AFF26C1105A8FFF785F84BF2101705AAEC
:1043800042F21071384603F0C1FA05AA1E213846E0
:1043900003F0BCFAA088FCF7A8F83146FBF7ECFF65
:1043A000FCF7E0F802460B46AFF2A41105A8FFF7B0
:1043B00069F805AA42F21171384603F0A7FA05AA76
:1043C0001F21384603F0A2FA6088FCF78EF83146C8
:1043D000FBF7D2FFFCF7C6F802460B46AFF2D81146
:1043E00005A8FFF74FF805AAC749384603F08EFA2B
:1043F000E088FCF77AF83146FBF7BEFFFCF7B2F82D
:1044000002460B46AFF2002105A8FFF73BF8BE4974
:1044100005AA491C384603F079FA94F83800693C3B
:10442000FCF763F83146FBF7A7FFFCF79BF8024661
:104430000B46AFF22C2105A8FFF724F8B24905AAD4
:10444000891C384603F062FA0026B94606EB86005E
:1044500000EB0408D8F8150002F012FD0246A84847
:10446000123000EBC6074846396803F04FFA98F857
:1044700019209AA105A8FFF705F8796805AA48460A
:1044800003F044FA761CF6B2082EDFD35FF0000684
:1044900004EBC608D8F8710002F0F2FC0246984816
:1044A000523000EBC6074846396803F02FFAD8F8B7
:1044B000750002F0E5FC02467968484603F026FAEA
:1044C000761CF6B2032EE3D35FF0000604EBC608B9
:1044D000D8F8510002F0D4FC024689486A3000EB5B
:1044E000C6074846396803F011FAD8F8550002F0BB
:1044F000C7FC02467968484603F008FA761CF6B213
:10450000032EE3D35FF0000606EB860000EB040801
:10451000D8F83D0002F0B4FC02467948823000EB46
:10452000C6074846396803F0F1F998F841206BA1B5
:1045300005A8FEF7A7FF796805AA484603F0E6F943
:10454000761CF6B2042EDFD30026DFF8C091731C70
:1045500009F10102AFF21C3105A8FEF793FF06EB4B
:1045600086080BEB88074BF2101A396805AA5046EB
:1045700003F0CCF9C844B8F83B00FBF7B6FFDFF80E
:1045800084914946FBF7F8FEFBF7ECFF02460B4629
:10459000AFF28C3105A8FEF775FF796805AA504681
:1045A00003F0B4F9B8F83D00FBF79FFF4946FBF76D
:1045B000E3FEFBF7D7FF02460B46AFF2B43105A886
:1045C000FEF760FFB96805AA504603F09FF904EBB7
:1045D0008608B8F98900FBF77FFF4946FBF7CCFE58
:1045E000FBF7C0FF02460B46AFF2E43105A8FEF729
:1045F00049FFF96805AA504603F088F9B8F98B001D
:10460000FBF76AFF4946FBF7B7FEFBF7ABFF024635
:104610000B46AFF20C4105A8FEF734FF396905AA35
:10462000504603F073F9761CF6B2042E8DD334484D
:104630008178022901D3857000E0A1B9A52234490F
:104640003448FBF71FFEA3213248FCF746FD3149F1
:10465000A1F8A300A5212F4800F0DEFF21484179F1
:10466000012900D14571DFF87CA09AF802000128E9
:104670007ED1234F4BF2111642F21072F878314678
:10468000401CF870304602F097F87860E8B1FFF708
:1046900093FB0022204BFBF7ADFEFBF74AFF80B2F5
:1046A000A4F86900FBF721FF1649FBF765FEFBF74D
:1046B00059FF02460B46AFF2B0416846FEF7E2FEF4
:1046C0006A461E21701E03F021F90F4A304631461A
:1046D00002F072F8786000B120E029E02530326401
:1046E000000000004A000020B4DFC7E0D4CBD0D0E7
:1046F00000000000B4DFC7E0CDA3D6B90000000081
:104700003C0100200000204105000D0011030020A5
:104710006C020020943A002000002440FFF74CFB7C
:104720000022A44BFBF766FEFBF703FFA4F86B0027
:1047300042F211723046314602F03EF8786000B322
:10474000FFF73AFB00229B4BFBF754FEFBF7F1FE11
:1047500080B2A4F86D00FBF7C8FE9749FBF70CFE8A
:10476000FBF700FF02460B46AFF26451684600E0DB
:104770001DE1FEF787FE6A461F214BF2101003F081
:10478000C5F88E4AB0463046314602F015F87860DA
:1047900048B1FFF711FB0022864BFBF72BFEFBF71E
:1047A000C8FEA4F86F00854A4046521C414602F0FC
:1047B00003F8786048B1FFF7FFFA00227D4BFBF762
:1047C00019FEFBF7B6FE84F8A100C1460026B846E4
:1047D0007B48494600EBC60748463A6801F0ECFFC3
:1047E000C8F8040030B102F0ABFD06EB86012144AD
:1047F000C1F815007A684F464846394601F0DCFF9B
:10480000C8F8040028B1FBF7AAFD06EB8601214495
:104810004876761CF6B2082EDAD30026B9466848E8
:104820004946403000EBC60748463A6801F0C4FFED
:10483000C8F8040028B102F083FD04EBC601C1F8FA
:1048400071007A684F464846394601F0B5FFC8F80E
:10485000040028B102F074FD04EBC601C1F8750034
:10486000761CF6B2032EDAD30026B94654484946E0
:10487000583000EBC60748463A6801F09DFFC8F87B
:10488000040028B102F05CFD04EBC601C1F8510040
:104890007A684846494601F08FFFC8F8040028B1FD
:1048A00002F04EFD04EBC601C1F85500761CF6B2CD
:1048B000032EDBD30026C14641484BF2111870305D
:1048C00000EBC60740463A68414601F075FFC9F85B
:1048D000040030B102F034FD06EB86012144C1F83A
:1048E0003D007A684046414601F066FF4F46C9F8F0
:1048F000040030B1FBF733FD06EB8601214481F85B
:104900004100761CF6B2042ED6D3C1460026B84626
:1049100006EB86010BEB81074846FA68494601F031
:104920004BFFC8F8040058B1FFF746FA0022214BAC
:10493000FBF760FDFBF7DEFD04EB8601A1F88900C3
:104940003A694846494601F037FFC8F8040058B1B3
:10495000FFF732FA0022174BFBF74CFDFBF7CAFDBD
:1049600004EB8601A1F88B00761CF6B2042ECFD39F
:1049700098F8031002291AD388F80350A522114988
:104980001148FBF77FFCA3210F48FCF7A6FB0E495B
:10499000A1F8A300A5210C4800F03EFE01218AF8F1
:1049A00007108AF804108AF803108AF802500BB036
:1049B000BDE8F08F000024400000204106000D00FB
:1049C0004E0100206C020020943A002070B5274C64
:1049D000274D8021A07800F001022846FCF77FFED9
:1049E000A0784021C0F340022846FCF778FEA0786A
:1049F0002021C0F3C0022846FCF771FEA0781D4EAE
:104A0000C0F38002E9143046FCF769FEA078082163
:104A1000C0F300122846FCF762FEA078A914C0F388
:104A200040123046FCF75BFEA0784FF40041C0F323
:104A300080123046FCF753FEA0781021C2092846A8
:104A4000FCF74DFE0C4DA4F10C016A781AB96078A0
:104A50000B78984208D0607808700AB12A7A0A70F8
:104A600002F066FA0020687070BD00002C01002082
:104A7000000C0140000801404002002005480449A4
:104A80004FF47A724160B1FBF2F10180704700008F
:104A900040420F003402002070B50B4900220C6820
:104AA000E56A0A49636A09884843616A9942FCD009
:104AB00002D2A3EB010302E0A5EB010633441A4442
:104AC0000B468242F1D370BDD01400203402002086
:104AD0002DE9FC5F03230A2291A192A002F0F0F9D4
:104AE000DFF84C92DFF84CA200244FF4967B09F1DA
:104AF0004A0100287ED0884600F07CF990B14D46EE
:104B000046464FF47A77B07D0028F5D02878411CCE
:104B100029700A2802D92C70B475EDE7384602F0E6
:104B200029FDF0E7844D012046462C7088F80400EA
:104B30000AF1010181A0FEF795FC5F46584602F09C
:104B400019FD84A0FEF78EFC384602F013FDB04636
:104B500028780128D0D068780028CDD084485746DE
:104B60007A1C80F82E4183A100F25E20FEF78AFCB9
:104B700099F80400421C89F804200A2803D298F806
:104B80001300002849D06B4988F8134089F8044085
:104B90005E2201F25720FBF775FB5C217B48FCF796
:104BA0009CFA7A497A1CA1F85C0072A17848FEF759
:104BB00069FC774977A0FEF755FC74494FF6FF73FF
:104BC0005E2201F54270FDF75DFE67A0FEF74AFC2C
:104BD000714E4FF47A7086F82E4102F0CBFC96F8B5
:104BE0002E0101280BD186F82E416CA1701CFBF719
:104BF00079FB00E07EE010B9012088F813005E46E2
:104C0000584602F0B7FC791C4CA0FEF72BFC30464E
:104C100002F0B0FC4FA0FEF725FC4649A522A539BD
:104C200001F25A30FBF72EFB5848A3215E30FCF707
:104C300054FA564946465E31A1F8A30098F804009C
:104C4000012813D1524953A0FEF70CFC4F494FF6EF
:104C5000FF735E31A52201F2AA20FDF713FE42A0E8
:104C6000FEF700FC3471584602F084FC707C012889
:104C70002DD12F491B2282314B48FBF703FB192111
:104C80004948FCF72AFA4849A1F81900404941A0CF
:104C9000FEF7E8FB44494FF6FF731B2201F20520A3
:104CA000FDF7F0FD30A0FEF7DDFB747440F2322218
:104CB00021493E48FBF7E6FA1D491B2282313C4858
:104CC000FBF7E0FA40F24D21384800F065FC4FF464
:104CD0007A7002F04FFC01231A4636A139A002F087
:104CE000EFF810B96C700120287001213948FCF7E9
:104CF000EEFC2DE702F0CAFB0D4902202431CDE97C
:104D000000010023802234A1394802F091FED9F835
:104D1000200002F055FCBDE8FC5F02F0D7BB0000AC
:104D20004F4B000041542B474D520D0A000000002C
:104D30000000002011030020393B002041542B5378
:104D400055423D6465762F73656E642F25732C3054
:104D50000D0A000041542B5355423D6465762F7374
:104D6000656E645F74696D652C300D0A000000008B
:104D70002C12002041542B5055423D6465762F7211
:104D800065636976652F25732C0000006805002097
:104D90008A140020257300005B1300205075626C9C
:104DA000697368206F6B00006B060020E80B002021
:104DB0001A0E002041542B494E464F3D6661696CE6
:104DC0006564000041542B4741505354415455539E
:104DD0000D0A000000080140657370383236363025
:104DE000375F6E65745F776F726B5F7461736B00B2
:104DF000994F00082DE9F041012202214548FCF7B6
:104E00006EFC0122444DD40321462846FCF767FC82
:104E1000012291032846FCF762FC01222146284624
:104E2000FCF75DFC3D483C218046FBF744FA3B4CD7
:104E30000025343C0126207801283ED13221A01CD7
:104E4000FBF739FA3C214046FBF735FA642104F1BF
:104E5000D400FBF730FA642104F17000FBF72BFA61
:104E60002FA1A01CFBF732FA04F59C71A01CFBF7E4
:104E70002DFA2DA1A01CFBF729FA04F25111A01C58
:104E8000FBF724FA29A1A01CFBF720FA28A1404631
:104E9000FBF71CFA01230A2231A1A01C02F010F832
:104EA000334F10B165703E7331E066700123052207
:104EB00030A1404602F004F880B14FF47A773846CA
:104EC00002F058FB1AA14046FBF700FA0123052225
:104ED00028A1404601F0F4FF40B118E0667025704B
:104EE0003D733C214046FBF7E6F90BE06670257008
:104EF000384602F03FFB01231A461FA122A001F011
:104F0000DFFF10B10020BDE8F08165702670012040
:104F1000F9E70000000C0140001001406D3B00204B
:104F200041542B41503D00002C0000000D0A0000B0
:104F300041542B4D515454434C4F55443D312E3127
:104F4000342E32362E3233392C313838332C6164DA
:104F50006D696E2C637A793132333435360D0A003F
:104F6000415020434F4E4E454354454400000000FD
:104F70004A0000206F6B000041542B494E464F3DC4
:104F80006661696C6564000041542B47415053547D
:104F9000415455530D0A0000DFF8A492A94D4FF675
:104FA000FF7BA5F14A044FF47A774FF00008A64E34
:104FB0004FF0010A0FE02078411C21700A2804D923
:104FC00084F8008085F8168005E0384602F0D2FAB1
:104FD000A87D0028EFD100F093F90028F8D186F8D9
:104FE000008085F804A009F1010198A0FEF73AFAC3
:104FF000384602F0BFFA9DA0FEF734FA3078012857
:10500000E9D070780028E6D06178481C60700729E4
:1050100002D2E87C002843D02879002840D1884972
:1050200085F8138084F801805E2201F23910FBF7C5
:1050300029F95C219648FCF750F895495E2309F15F
:105040000102A1F85C0093A19D48FEF71BFA3846C7
:1050500002F090FA01230A229AA1994801F030FF48
:10506000002831D085F813A097A0FEF7FBF9E0786F
:10507000401CC0B2E070032804D995A0FEF7F2F9F5
:1050800084F80380384602F075FA09F101016FA037
:10509000FEF7E8F9384602F06DFA74A0FEF7E2F97F
:1050A0006749A522A53901F50F70FBF7EBF87848A1
:1050B000A3215E30FCF711F875495E31A1F8A30019
:1050C000287901280CD03AE071495B465E2201F252
:1050D0002640FDF7D7FB384602F04CFA7AA0CDE720
:1050E00079A0FEF7BFF9384602F044FA4621744829
:1050F000FBF7E1F8A52309F1010266A17048FEF76C
:10510000C1F901230A226FA16D4801F0D9FED0B187
:10511000E078401CC0B2E070032804D96CA0FEF710
:10512000A1F984F80380384602F024FA66A0FEF75D
:1051300099F9384602F01EFA63A0FEF793F9687CED
:1051400001280DD03EE052495B465E31A52201F5B3
:105150007270FDF797FB85F8048085F811A0E2E7EF
:1051600038491B2238315D48FBF78CF819215B4820
:10517000FBF7B3FF59491B2309F10102A1F81900FC
:1051800044A14F48FEF77EF901230A224DA14C4865
:1051900001F096FE20B3E078401CC0B2E070032816
:1051A00004D94BA0FEF75EF984F80380384602F07C
:1051B000E1F945A0FEF756F9384602F0DBF942A0C6
:1051C000FEF750F9384602F0D5F93FA0FEF74AF94C
:1051D000A178481CA07003292DD92879D8B12AE0DC
:1051E0003E495B461B2201F22330FDF74BFB85F85D
:1051F000118040F2322214493948FBF743F8114933
:105200001B2238313748FBF73DF840F24D21344836
:1052100000F0C2F9CAE7384602F0ACF984F802801F
:1052200001230A2230A132A001F04AFE18B186F80B
:10523000018086F800A001213048FCF748FADDE63D
:10524000110300204A000020393B002041542B4D1F
:105250005154545355423D302C226465762F73656A
:105260006E642F2573222C310D0A000041542B4D02
:105270005154545355423D302C226465762F73654A
:105280006E645F74696D65222C310D0A00000000A8
:105290004A04002041542B4D515454505542524120
:1052A000573D302C226465762F7265636976652FD1
:1052B0002573222C25642C302C300D0A00000000B0
:1052C0008A1400204F4B000041540D0A00000000DA
:1052D00041542B5253540D0A000000004D0500208C
:1052E000E80B00201A0E002043574A4150000000EE
:1052F00041542B43574A41503F0D0A0000080140DA
:105300002DE9F84F67483C210090FAF7D4FF66A0DA
:10531000FEF7A8F84FF4FA79484602F02BF9614CF1
:10532000DFF89481343C0025207801264FF4FA6799
:1053300001280ED0384602F01DF902230A225FA18F
:10534000D8F8000001F0BCFD00287DD00120BDE8A8
:10535000F88F5BA0FEF786F8484602F00BF958A0DC
:10536000FEF780F8484602F005F9484602F002F9D7
:1053700055A0FEF777F8DFF864A10122022150461C
:10538000FCF7ADF94FF4004B012259465448FCF7A5
:10539000A6F9012291035248FCF7A1F9484602F010
:1053A000E9F8012202215046FCF799F901225946F9
:1053B0004B48FCF794F9012291034948FCF78FF917
:1053C0003221A01CFAF777FF3C210098FAF773FF0F
:1053D00034486421A030FAF76EFF324864213C3033
:1053E000FAF769FF3FA1A01CFAF770FF4049A01C23
:1053F000FAF76CFF3FA1A01CFAF768FF3C49A01C1C
:105400001931FAF763FF3CA1A01CFAF75FFF0123F3
:105410000A222AA1A01C01F053FD002896D1BA4609
:10542000384602F0A7F8324834A132300746FAF77E
:105430004DFF38493846FAF749FF37A13846FAF7A1
:1054400045FF01230A2200E01CE01CA1384601F0C0
:1054500037FD0028E2D1504602F08CF836A0FEF766
:1054600001F8484602F086F801230A2213A1D8F871
:10547000000001F025FD0028D0D13A486670257063
:1054800005730DE0384602F075F86570012326704B
:105490001A460AA134A001F013FD08B96570267000
:1054A000002054E76D3B002041542B43574D4F449F
:1054B000453D310D0A000000300200204F4B000036
:1054C00041540D0A0000000041542B4D51545443E7
:1054D0004C45414E3D300D0A00000000000C0140DB
:1054E0000010014041542B43574A41503D220000D7
:1054F000713C0020222C2200220D0A0041542B4D29
:10550000515454555345524346473D302C312C227B
:10551000000000006D020020222C2261646D696E83
:10552000222C22637A79313233343536222C302CD6
:10553000302C22220D0A000041542B4D515454436B
:105540004F4E4E4346473D302C3130302C312C22CB
:10555000313233222C22313233222C302C300D0ABE
:10556000000000004A00002041542B43574A41509C
:105570003F0D0A00064B074A9360491E89B206D3C5
:1055800093681B8820F8023B93689B1CF4E77047E4
:1055900000CC000810010020F0B585B00E4607468B
:1055A000FBF750FF0020114D012101900090CDE943
:1055B000035172B6694601A8FBF7A6FE0C49012803
:1055C000487011D0002409E037F8142005EB44019D
:1055D00000230120FBF7F6FE641CA4B2B442F3D30F
:1055E000FBF7E6FE62B6002005B0F0BD00CC000877
:1055F00010010020064B074A5360491E89B206D3AA
:1056000053681B8820F8023B53689B1CF4E77047E3
:1056100000C8000810010020F0B585B00E4607460E
:10562000FBF710FF0020114D012101900090CDE902
:10563000035172B6694601A8FBF766FE0C490128C2
:10564000087011D0002409E037F8142005EB44015C
:1056500000230120FBF7B6FE641CA4B2B442F3D3CE
:10566000FBF7A6FE62B6002005B0F0BD00C800083A
:105670001001002013B54FF6FF730122694602485E
:10568000FDF700F900981CBD7008002010B5002837
:1056900021D0114B0022001F196803E0814203D87A
:1056A0000A4649680029F9D152B11368841A9C420C
:1056B00004D1006818441060104602E0506000E019
:1056C000186039B102680B1A934203D10B681A446F
:1056D00002604968416010BD600200202DE9F84376
:1056E000464908680268C2F30012002A72D00268B4
:1056F00040680090C88D01F5CB64C0F57A7080B227
:10570000A4F8E903012584F8EB536178A61E3C4F09
:10571000AA292CD1805DAB2862D1A522611CA4F6F8
:10572000D120FAF7AFFDA321A4F6D120FBF7D5FCD9
:10573000A4F6D12180B2B1F8A310814217D1A4F60A
:10574000D121A522A1F20310FAF79CFD07F11F0851
:10575000FD730F2188F8151017214046FBF7BDFC9B
:10576000A8F81700192241462448FDF7E4F86078AC
:10577000B52835D1B4F8E903805DB62830D140F2C0
:10578000223631461F48FAF796FD1C48B21D611CAF
:10579000D830FAF777FD1948311DD830FBF79DFC5A
:1057A000DFF8588080B208F1D808B8F82613814293
:1057B00016D1324608F103011248FAF763FDB8F832
:1057C000010010F0FF0F06D0C0B2022805D001285A
:1057D00005D005E00FE07D7602E0FD7600E0BD76C5
:1057E0000648FCF72DFE611CBDE8F8434FF47A72C1
:1057F0000248FDF731B8BDE8F8830000E807002053
:105800004A000020C8360020F0B53FA09DB00FC868
:105810008DE80F0040A204AC0FCA84E80F0042A03C
:1058200008AC0FC884E80F0043A30CAC0FCB84E88E
:105830000F0045A210AC0FCA84E80F0046A114ACBB
:105840000FC984E80F0048A318AC0FCB84E80F0001
:10585000494908680268C2F30012002A52D002685F
:10586000002740681C90C88D01F52064C0F5967033
:1058700084F82D01012584F82E510E226946601C02
:10588000FAF757FD3D4E60B10E2214A9601CFAF7DD
:1058900050FD40B10E2218A9601CFAF74AFD20B154
:1058A00006E0B57002E0357500E0F57584F82D71FD
:1058B0000E2204A9601CFAF73CFD314F90B10E2274
:1058C00008A9601CFAF735FD70B10E220CA9601C06
:1058D000FAF72FFD50B10E2210A9601CFAF729FD2E
:1058E00030B106E07D7004E0BD7002E03D7000E084
:1058F000B5722148FCF7A4FD4FF49672611C1E4856
:10590000FCF7AAFF1DB0F0BDEEB1110007000110B9
:105910000001FFFCFFFF0000EEB111000E000210BD
:105920000101FFFCFFFF0000EEB111000E000310AB
:105930000101FFFCFFFF0000EEB111000E0004109A
:105940000101FFFCFFFF0000EEB111001000041088
:105950000101FFFCFFFF0000EEB111000D000B1074
:105960000101FFFCFFFF0000EEB111001400031065
:105970000101FFFCFFFF00002C0800204A0000206E
:10598000210100202DE9F04F92498DB0086802688E
:10599000C2F30012002A7DD0026840680090C88DD2
:1059A00001F6EB24C0F59670C2B284F82D210125D2
:1059B00084F82E516378A01EDFF81CA2A0F6EA79C5
:1059C000A1F25F58AAF13806AA2B04D0A42B2AD042
:1059D000B12B4AD070E0105CAB286DD1A522611CC0
:1059E0007E48FAF74FFCA3217C48FBF776FBB9F819
:1059F000A31080B281425FD17849A522A1F20310A1
:105A0000FAF740FC744FF573193F0F207875172192
:105A10003846FBF762FBA7F81700192239466D4894
:105A2000FCF789FF48E0105CA52845D11922611CCC
:105A300002A8FAF727FC08F101010DF10900FAF7B5
:105A40006AFC40BB9DF81D106548082907D00A294B
:105A500007D00C2907D00E292ED175722CE0457085
:105A60002AE0857028E0057026E0105CB22823D17A
:105A70005A481B22611CA530FAF704FC574819212B
:105A8000A530FBF72AFB554F80B2A537B7F81910A0
:105A9000814201E09BE00FE00ED108F10101781C8A
:105AA000FAF739FC40B9BAF81600F8821B223946D9
:105AB0004948FAF7E7FB3574DFF820B100270BF10E
:105AC000C00B77E0E1194878A02804D0B12825D090
:105AD000B32849D06CE091F8A300A12868D1A52291
